:020000040800F2
:104000000004002011C501081FC5010821C50108D1
:1040100023C5010825C5010827C5010800000000C7
:10402000000000000000000000000000BD4100088A
:104030002BC501080000000035420008714200084D
:1040400031C5010831C5010831C501089393010844
:1040500031C5010831C50108355D0108C95D010898
:1040600031C5010831C5010831C5010831C5010854
:1040700031C5010831C5010831C5010831C5010844
:1040800031C5010831C5010831C5010831C5010834
:1040900031C5010831C5010831C50108575D010866
:1040A00031C5010831C5010831C5010831C5010814
:1040B00031C501081B94010831C5010831C501084B
:1040C00031C5010831C5010831C5010831C50108F4
:1040D00031C50108B57E01082580010831C50108F8
:1040E00031C5010831C5010831C5010831C50108D4
:1040F00031C5010831C5010831C5010831C50108C4
:1041000031C5010831C5010831C5010831C50108B3
:1041100031C5010831C5010831C5010831C50108A3
:1041200031C5010831C5010831C5010831C5010893
:10413000DFF81CD018F02EFC19F04CF900210348D0
:1041400019F0BEF919F058F9FEE70000B000006060
:1041500020A2066080F309887047EFF3098070475A
:10416000684680F3098804480078C00714BF02201D
:10417000032080F31488704718E80108DFF818C09E
:10418000EFF305831B0618BF6047EFF31483DB07CB
:1041900008BF604700DF704791D50108DFF818C0FD
:1041A000EFF305831B0618BF6047EFF31483DB07AB
:1041B00008BF604700DF704775D70108EFF309803B
:1041C000816911F8021CF1B990E80F10E047EFF394
:1041D000098C8CE80700144B93E8060091420FD03D
:1041E00039B12CE9F00FC1F828C00CB419F090FDDA
:1041F0000CBC1A60D2F828C0BCE8F00F8CF3098818
:104200006FF0020E704710B5084A1268914209D843
:10421000074C54F8214090E80F10A047EFF3098CA9
:104220008CE80F0010BD00004401006070CD010853
:1042300070CD010819F040FC0C4B93E80600914248
:1042400010D0EFF3098C2CE9F00FC1F828C00CB4A2
:1042500019F05EFD0CBC1A60D2F828C0BCE8F00F63
:104260008CF309886FF0020E704700004401006073
:1042700019F016FEE0E7000019F076F919F010FECB
:10428000DAE7000006E0002013F059FB4FF4FA7063
:1042900019F094F8F7E713F0C6FA03F028FE4FF090
:1042A00000602B49486400212A4819F009F92A497D
:1042B00008600021294819F003F929490860002104
:1042C000284819F0FDF8284908600021274819F00E
:1042D000F7F8274908600021264819F0F1F8264927
:1042E00008600021254819F0EBF8254908600021F5
:1042F000244819F0E5F8244908600021234819F002
:10430000DFF8234908600021224819F0D9F8224932
:1043100008600021214819F0D3F8214908600121E3
:10432000204801F075F8044621461E4810F0CAFDE9
:104330004FF47A7019F042F802F0E8FC1A4814F0D1
:1043400081FE4FF0FF3019F039F800BFFEE70000A2
:104350003806006044E401080000006054E40108ED
:104360000400006064E401080800006074E40108CF
:104370000C000060C4E4010820000060B4E40108FF
:104380001C000060A4E401081800006094E4010827
:104390001400006084E4010810000060D4E4010807
:1043A000240000605C020060F83600600020704766
:1043B0007047704770470146012201E0501CC2B2AD
:1043C000087810410028F9D1487802EBC000C0B24B
:1043D00070470246511C0878C0F3800008B90720D6
:1043E00070470878000900EB4000132303EB4000FE
:1043F000F6E72DE9F04105462846FFF7EAFF0646B5
:10440000701CC7B215F80680E819FFF7D4FF044600
:10441000B8F1100F71D007DCB8F1060F6ED2DFE8EB
:1044200008F018283E488E9EB8F1140F67D009DCBA
:10443000B8F1110F70D0B8F1120F6ED0B8F1130FA0
:104440005CD126E1B8F1150F68D0B8F1F00FF7D1C3
:1044500043E1012C03D1284600F020FB08E0022CA8
:1044600003D1284600F02FFB02E0042000F0ADFA53
:1044700071E1012C03D1284600F03AFB0EE0022C3A
:1044800003D1284600F061FB08E0032C03D1284645
:1044900000F09DFB02E0042000F097FA5BE1012CA4
:1044A00003D1284600F09CFC02E0042000F08DFAC5
:1044B00051E1012C03D1284600F0F3FC3EE0042C2E
:1044C00003D1284600F031FE38E0052C03D1284600
:1044D00000F05CFE32E0062C03D1284600F08EFE90
:1044E0002CE0072C03D1284600F0DEFE26E0082C45
:1044F00006D1284600F00DFF20E05EE027E1D2E083
:10450000092C03D1284600F03FFF17E00A2C06D102
:10451000284601F05DF811E077E0A4E0D3E00B2C31
:1045200003D1284601F06EF808E0642C03D1284638
:1045300001F0B2F802E0042000F047FA0BE1012C90
:1045400003D1284601F0DEF808E0022C03D128460A
:1045500001F0BAF902E0042000F037FAFBE0012C88
:1045600003D1284601F072FA26E0022C03D1284636
:1045700001F0C5FA20E0032C03D1284601F0EFFA40
:104580001AE0042C03D1284601F054FB14E0052C5A
:1045900003D1284601F072FB0EE0642C03D12846BB
:1045A00001F0E7FB08E0652C03D1284601F021FC6F
:1045B00002E0042000F009FACDE0012C03D12846E6
:1045C00001F09BFC20E0022C03D1284601F0E8FC1E
:1045D0001AE0032C03D1284601F06BFD14E0042CF3
:1045E00003D1284601F009FE0EE0642C03D12846D1
:1045F00001F0AFFE08E0652C03D1284601F0E2FE91
:1046000002E0042000F0E1F9A5E0012C03D12846E6
:1046100002F072F826E0022C03D1284602F056F987
:1046200020E0032C03D1284602F0AEF91AE0042C56
:1046300003D1284602F00EFA14E0642C03D1284678
:1046400002F01AFA0EE0652C03D1284602F035FA82
:1046500008E0662C03D1284602F08DFA02E004201F
:1046600000F0B3F977E0012C03D1284602F0ADFA4F
:104670000EE0022C03D1284602F0B9FA08E0032C20
:1046800003D1284602F0C5FA02E0042000F09DF9AB
:1046900061E0012C03D1284602F0CDFA02E00420AB
:1046A00000F093F957E0022C03D1284602F0B2FB48
:1046B00008E0032C03D1284602F01EFC02E004208F
:1046C00000F083F947E0012C03D1284602F0F8FC02
:1046D00002E0042000F079F93DE0012C03D12846E6
:1046E00002F0F3FE32E0022C03D1284602F034FF40
:1046F0002CE0032C03D1284602F072FF26E0042CA4
:1047000003D1284602F08EFF20E0052C03D1284675
:1047100002F08BFF1AE0062C03D1284602F0C9FFF5
:1047200014E0072C03D1284603F056F80EE0082CBD
:1047300003D1284603F0C3F808E0092C03D128462A
:1047400003F01FF902E0042000F03FF903E00A2023
:1047500000F03BF900BF00BFBDE8F08110B50024B8
:10476000154810F080FB044624B114480470124828
:10477000FFF73FFE10BD04E0FFF7F0FF0A2018F03E
:104780001DFEF9E770B504462046FFF722FE0546F8
:10479000665D16B1142E08D103E00A2000F015F969
:1047A00007E00A2000F011F903E00A2000F00DF9FB
:1047B00000BF00BF70BD00006C01006028000060F9
:1047C00010B5421ED31702EB5373C3F3C7034B70EC
:1047D000D31702EB5373DB10A2EBC3040123A340F6
:1047E0000B7010BD2DE9F04104460D4616461F46DC
:1047F000002294466B1C611C8A2040EA86102070BF
:10480000187891F8008060F3000881F8008008783B
:1048100020F00200087018784FEA9008087868F3D2
:1048200082000870087820F008000870087820F0EE
:10483000F0000870587891F8018060F3030881F85F
:104840000180487820F0F0004870887820F00F0050
:104850008870887820F0F0008870C87820F00F0009
:10486000C870C87820F0F000C870087967F30000BD
:104870000871087920F0FE000871587948710878AD
:10488000C0F3800018B318784FF0010808EB10103F
:1048900000EB40004FF0070808EB400000F0FF0C71
:1048A00000BF0FE002EB0C0015F80080D01D04F8EB
:1048B0000080FE4810F8028002F10D0004F800802C
:1048C000501CC2B2062AEDDB1320BDE8F0810720A0
:1048D000FBE72DE9FE43064688460025F44903C957
:1048E000CDE90101F34CF44F8A20611E087038783D
:1048F000217860F300012170207820F00200207000
:10490000207820F004002070207820F0080020702B
:10491000207820F0F00020707878617860F303014F
:104920006170607820F0F0006070A07820F00F00D7
:10493000A070A07820F0F000A070E07820F00F00C8
:10494000E070E07820F0F000E070207920F00100C5
:104950002071207920F0FE002071787960710725A0
:10496000B8F1000F02D1FE208DF80400F0B28DF8EE
:10497000080030128DF8090000222846691CCDB2CB
:10498000CC49491E0A5469460120FFF719FF9DF8DA
:1049900000202846691CCDB2C649491E0A549DF81C
:1049A00001202846691CCDB2C249491E0A54481943
:1049B000062201A917F04CFAA81DC5B22946BD4828
:1049C000401E10F07FFABDE8FE83F8B507460025CB
:1049D000B84CB94E8A20611E08703078217860F397
:1049E00000012170207820F002002070207820F053
:1049F00004002070207820F008002070207820F03B
:104A0000F00020707078617860F303016170607865
:104A100020F0F0006070A07820F00F00A070A07867
:104A200020F0F000A070E07820F00F00E070E07857
:104A300020F0F000E070207920F001002071207952
:104A400020F0FE0020717079607107250022294650
:104A50006D1C601E425469460220FFF7B1FE9DF8AE
:104A6000002029466D1C601E42549DF801202946F5
:104A70006D1C425429466D1C4754294610F022FAF9
:104A8000F8BD10B501464A1C0020137803F001045C
:104A9000C3F3800304EB4303581C10BD70B50446F8
:104AA00000252046FFF7EDFF0546012D02D0022D1F
:104AB00002D100E000BF03E00420FFF786FF00BF43
:104AC00000BF002070BD70B5044600252046FFF7EA
:104AD000D8FF0546012D02D0022D02D100E000BF13
:104AE00003E00420FFF771FF00BF00BF002070BD8E
:104AF00070B5044600252046FFF7C3FF0546012D8B
:104B000002D0022D10D100E000BF012003F086FB8F
:104B100000210A20FFF7DDFE13F032FE4FF47A7019
:104B200012F097FE02F0CEFF0420FFF74EFF00BF09
:104B300000BF002070BD4BF201005C4908820120DB
:104B40008881002081F85000704770B50446002528
:104B50002046FFF796FF0546012D02D0022D2FD1EA
:104B600000E000BF5148C07C812801D10FF0B6F9A8
:104B70004E48C07C802802D080204C49C8744F48E1
:104B800014F060FA4E48007820F00200801C4C4976
:104B90000870FFF7D0FF09F0B1FD0BF060FA434A4F
:104BA00058214FF4967014F01FF9444A0A2140F23C
:104BB0002A4014F019F901210020FFF78AFE03E0D2
:104BC0000420FFF702FF00BF00BF002070BD70B5DA
:104BD000044600252046FFF754FF0546012D02D06C
:104BE000022D33D100E000BF3048C07C812801D1C4
:104BF0000FF074F92D48C07C802802D080202B490A
:104C0000C8740220294981F850002C480A3014F059
:104C100019FA2B48007820F00200801C28490870FF
:104C200009F06CFD0BF01BFA204A58214FF49670E6
:104C300014F0DAF8214A0A320A2140F2344014F022
:104C4000D3F801210020FFF744FE03E00420FFF722
:104C5000BCFE00BF00BF002070BD1CB50446002193
:104C60000091019106222146684617F0F1F8DDE92E
:104C700000011CBD7FB58EB0DDE916560024114839
:104C8000057000200F49C8719DF844100D4801734C
:104C90000622401C0E9917F0DBF806EB4600C0EB2D
:104CA000C6104FF6FF7101EAC0000DE03806006043
:104CB000C0E701085D0200606D010060C63600605B
:104CC000500000602F050060F849A1F81300F74874
:104CD000109981609DF84600002875D001A8F3491D
:104CE000C1F815009DF84510F048D0F8150000787F
:104CF00061F30400ED49D1F8151008709DF84510D6
:104D0000EA48D0F81500008861F34910E749D1F866
:104D100015100880E548D0F81500407820F00C0008
:104D20000C30E249D1F815104870E048D0F8150071
:104D3000407820F030003030DC49D1F81510487050
:104D4000DA48D0F81500407820F0C000C030D749CC
:104D5000D1F815104870D548D0F81500807820F0AB
:104D60000300C01CD149D1F815108870CF48D0F885
:104D70001500807820F00C000C30CC49D1F81510CB
:104D80008870CA48D0F81500807820F030003030A4
:104D9000C649D1F81510887000BF0FE006220F99A0
:104DA00002FB0410FFF759FFC04AD2F81520D21CAD
:104DB00002EBC40210605160601CC4B29DF8450053
:104DC000A042EBDC04E0FFE70020B849C1F8150081
:104DD0000120B7490870B5480CF079FF12B070BDDA
:104DE00070B586B004460026651C2046FFF749FED4
:104DF0000646042E4ED1AF48C07C802805D009203D
:104E0000FFF7E3FD002006B070BDAB4802782146F5
:104E1000A748F33017F01CF8A7480078A449887019
:104E20000120A449C874287800098DF815009DF860
:104E3000150000EB400104F10D0000EB4100029071
:104E400004F10D0003909DF8150000EB400104F102
:104E5000130000EB410000798DF814009DF8150057
:104E600000EB400104F1130000EB4100401D0490F1
:104E70002878C0F3800108408DF816009DF81500D1
:104E8000801CC0B22021CDE9001002A80FC8FFF796
:104E9000F1FE03E00420FFF798FD00BF00BF0020F3
:104EA000B1E7F0B587B0054600276E1C2846FFF72E
:104EB000E8FD0746012F06D0022F05D0032F26D08C
:104EC000042F63D124E000BF00231A467B497C48AD
:104ED000FFF788FC044603222046611CCCB27849C7
:104EE0000A54084601190120FFF76AFCA01CC4B24D
:104EF0007349081909226F49183116F0A9FF04F106
:104F00000900C4B221466E480FF0DCFF42E000BF4A
:104F10006848C07C802805D00920FFF756FD002096
:104F200007B0F0BD6448027829466148F33016F0B6
:104F30008FFF614800785E49887004205D49C8741D
:104F4000307800098DF819009DF8190000EB400138
:104F500005F10D0000EB4100039005F10D000490F8
:104F600000208DF8180005903078C0F380010840CB
:104F70008DF81A009DF81900801CC0B22021CDE9DF
:104F8000001003A80FC8FFF775FE03E00420FFF729
:104F90001CFD00BF00BF0020C2E77CB505466E1CAB
:104FA0003078C0F3800070BB46A0006800900023FA
:104FB0001A4642494248FFF715FC044603222046A0
:104FC000611CCCB23E490A5401A90220FFF7F8FB4C
:104FD0009DF804202046611CCCB239490A549DF842
:104FE00005202046611CCCB235490A549DF80020AA
:104FF0002046611CCCB232490A54214630480FF099
:1050000061FF00207CBDFFE72EA000680090002318
:105010001A462A492A48FFF7E5FB044603222046A0
:10502000611CCCB226490A5401A90220FFF7C8FB33
:105030009DF804202046611CCCB221490A549DF8F9
:1050400005202046611CCCB21D490A549DF8002061
:105050002046611CCCB21A490A54214618480FF068
:1050600031FF0020CEE72DE9F843054605F101099F
:1050700099F80000C0F3800028B9C720FFF7A5FC0D
:105080000020BDE8F8832846FFF7A3F9C01CC6B28C
:1050900015F80680701C2F5CB8F1500F01DA102F44
:1050A00012DDC320FFF791FC0020EAE72F05006026
:1050B0004C03006038060060280000606C0100604E
:1050C0005C0200600200000000231A46F849F9481B
:1050D000FFF788FB044603222046611CCCB2F54949
:1050E0000A5469460320FFF76BFB9DF80020204619
:1050F000611CCCB2EF490A549DF801202046611C86
:10510000CCB2EC490A540B19A919881F3A464146FA
:1051100009F005FE0746F800801C2044C4B2214671
:10512000E4480FF0CFFE0020ABE770B5054600263F
:105130002846FFF7A6FC0646012E20D100231A467A
:10514000DB49DC48FFF74EFB044603222046611C86
:10515000CCB2D8490A54084601190420FFF730FBA5
:10516000A01CC4B2D34908190622D34916F070FE18
:10517000A01DC4B22146CF480FF0A4FE03E00420D6
:10518000FFF723FC00BF00BF002070BDF8B5054647
:105190000026CAA0006800902846FFF772FC064669
:1051A000012E02D0022E22D100E000BF00231A46B9
:1051B000BF49C048FFF716FB044603222046611C86
:1051C000CCB2BC490A54084601190520FFF7F8FA89
:1051D000A01CC4B2B74908190422694616F038FE6B
:1051E000201DC4B22146B3480FF06CFE03E004203A
:1051F000FFF7EBFB00BF00BF0020F8BD2DE9F04139
:10520000064600273046FFF73CFC0746022F43D1F5
:1052100000231A46A649A748FFF7E4FA04460322EA
:105220002046611CCCB2A3490A5408460119062045
:10523000FFF7C6FAA01CC4B212F011FB0546B07A03
:105240004EF6602101FB005512E012F0E3FA9A4994
:10525000887C002111F093FD9749497D891F884280
:1052600006DA01222046611CCCB292490A5403E0BE
:1052700012F0F5FAA842E8D300BF12F0F0FAA84203
:1052800005D300222046611CCCB28A490A5421462B
:1052900088480FF017FE03E00420FFF796FB00BFDD
:1052A00000BF0020BDE8F08170B505460026284605
:1052B000FFF7E7FB0646012E02D0022E22D100E0C6
:1052C00000BF00231A467A497A48FFF78BFA044652
:1052D00003222046611CCCB276490A5408460119C3
:1052E0000720FFF76DFAA01CC4B2734890F8312074
:1052F0002046611CCCB26F490A5421466D480FF01C
:10530000E1FD03E00420FFF760FB00BF00BF0020C9
:1053100070BD70B5054600262846FFF7B2FB06466D
:10532000012E02D0022E28D100E000BF00231A4631
:105330005F496048FFF756FA044603222046611C85
:10534000CCB25C490A54084601190820FFF738FA24
:10535000A01CC4B25848827C2046611CCCB255497E
:105360000A545548027D2046611CCCB251490A546A
:10537000214650480FF0A6FD03E00420FFF725FB6F
:1053800000BF00BF002070BD2DE9F0410646002798
:105390003046FFF776FB0746012F02D0022F2FD1B0
:1053A00000E000BF444880894FF4166148434FF441
:1053B0007A7190FBF1F085B200231A463C493D48D2
:1053C000FFF710FA044603222046611CCCB239498B
:1053D0000A54084601190920FFF7F2F9A01CC4B2CB
:1053E0002046611CCCB233490D542A0A2046611C68
:1053F000CCB230490A5421462E480FF063FD03E039
:105400000420FFF7E2FA00BF00BF0020BDE8F081F2
:1054100070B505460E46012E52D12946681C0A7801
:1054200022F0800280320A700A7822F04002403274
:105430000A700A7822F03F020A320A70427822F09B
:105440000F024270827822F0F0028270C27822F05D
:105450000F02C270C27822F0F002C270027922F00C
:1054600001020271827822F00F028270027822F02B
:10547000F0020270027822F00102521C02700278DF
:1054800022F00402027000224271027922F0FE0230
:105490000271027822F002020270027822F0080201
:1054A0000270427822F0F002427007240FE0000000
:1054B0006C0100605C02006038060060000F0A802A
:1054C00000231A46F9492846FFF78CF904460322BF
:1054D0002046611CCCB22A5429190A20FFF770F922
:1054E000A01CC4B22046611CCCB2F14991F82D1029
:1054F00041552046611CCCB2ED4991F82E10415522
:105500002046611CCCB2EA4991F82F104155204643
:10551000611CCCB2E64991F8301041550022214679
:10552000601CC4B26A542046611CCCB22A54E048C4
:1055300090F831202046611CCCB22A54DC48408EC1
:105540002853A01CC4B2DA48808E2853A01CC4B2D1
:10555000D748C08E2853A01CC4B2D54890F8382034
:105560002046611CCCB22A5428190622D04916F0D4
:105570006FFCA01DC4B2CE484089401E2853A01C19
:10558000C4B2CB488089401E2853A01CC4B228193D
:105590000322C749393116F05BFCE01CC4B228195C
:1055A0000322C3493C3116F053FCE01CC4B2281955
:1055B0000922BF49183116F04BFC04F10900C4B2AE
:1055C000BB48B0F840002853A01CC4B2204670BDB0
:1055D00070B5044600252046FFF753FA0546012D15
:1055E00009D10021B348FFF713FF06463146B14801
:1055F0000FF068FC03E00420FFF7E7F900BF00BFED
:10560000002070BD70B58AB005460026242101A88F
:1056100017F001F82846FFF734FA0646012E02D0AB
:10562000022E31D100E000BF00231A469F49A14855
:10563000FFF7D8F8044603222046611CCCB29D49EE
:105640000A54084601190B20FFF7BAF8A01CC4B28F
:10565000A87A16280ADAAA7A02EB4212964BD118D7
:10566000944A1019212216F0F3FB05E0914908191C
:10567000212201A916F0ECFB04F12100C4B221465D
:105680008C480FF01FFC03E00420FFF79EF900BFD9
:1056900000BF00200AB070BD70B505460026284640
:1056A000FFF7EFF90646012E02D0022E23D100E0CB
:1056B00000BF00231A467D497E48FFF793F8044651
:1056C00003222046611CCCB27A490A5408460119CB
:1056D0006420FFF775F8A01CC4B2764908190122AE
:1056E0007349153116F0B4FB601CC4B221467148F1
:1056F0000FF0E8FB03E00420FFF767F900BF00BFED
:10570000002070BD70B5044600BF12F0A8F8A17A61
:1057100001EB4102C2EBC11100EBC1062046FFF7CD
:10572000B0F90546012D02D0022D0FD100E000BFD7
:105730005F48C07C802804D00920FFF746F900208C
:1057400070BD01210020FFF7C4F803E00420FFF73B
:105750003CF900BF00BF0020F2E71FB58EB0002467
:1057600056A000680090012055490870504890F8F4
:10577000310000EB4001C1EBC0104FF6FF7101EAB0
:10578000C0004F49A1F8130001214D48C1720146E4
:10579000C1F807D00622401C0E9916F059FB9DF85F
:1057A0004600002875D001A84549C1F815009DF8AC
:1057B00045104348D0F81500007861F304004049D3
:1057C000D1F8151008709DF845103D48D0F8150027
:1057D000008861F349103A49D1F81510088038481B
:1057E000D0F81500407820F00C000C303449D1F886
:1057F000151048703248D0F81500407820F030007D
:1058000030302F49D1F8151048702D48D0F81500C8
:10581000407820F0C000C0302949D1F815104870F8
:105820002748D0F81500807820F00300C01C2449D8
:10583000D1F8151088702248D0F81500807820F033
:105840000C000C301E49D1F8151088701C48D0F897
:105850001500807820F0300030301949D1F815104B
:10586000887000BF0FE006220F9902FB0410FFF7BB
:10587000F4F9134AD2F81520D21C02EBC4021060CE
:105880005160601CC4B29DF84500A042EBDC04E00E
:10589000FFE700200A49C1F81500012009490870F6
:1058A00007480CF014FA12B010BD00006C01006043
:1058B000380600605C020060E8E4010804000000B3
:1058C0002F0500604C03006070B586B004460026CA
:1058D000651C2046FFF7D5F80646042E4ED1F94840
:1058E000C07C802805D00920FFF76FF8002006B0A3
:1058F00070BDF54802782146F44816F0A9FAF2483E
:105900000078F249F33988700620EE49C874287887
:1059100000098DF815009DF8150000EB400104F119
:105920000D0000EB4100029004F10D0003909DF882
:10593000150000EB400104F1130000EB4100007979
:105940008DF814009DF8150000EB400104F11300E0
:1059500000EB4100401D04902878C0F3800108400E
:105960008DF816009DF81500401CC0B22021CDE92D
:10597000001002A80FC8FFF77DF903E00420FFF72D
:1059800024F800BF00BF0020B1E770B586B0044620
:105990000026651C2046FFF774F80646012E02D04B
:1059A000022E36D100E000BFC648C07C802805D05A
:1059B0000920FFF70AF8002006B070BDC24802783F
:1059C0002146C24816F044FABF480078BF49F3396F
:1059D00088700720BB49C87400208DF8150004F1B9
:1059E0000B000290801C0390207D8DF8140004F1C0
:1059F000150004902878C0F3800108408DF8160047
:105A000002202021CDE9001002A80FC8FFF732F9CB
:105A100003E00420FEF7D9FF00BF00BF0020CBE762
:105A20002DE9FC4104460020009001900622214609
:105A3000684616F00DFA6D46A54A0023D5E90061C7
:105A4000304616F07DFD90B2BDE8FC8170B504468D
:105A500000262046FFF715F80646012E48D10622FB
:105A600004F10A01974816F0E3F90546002D3AD1F2
:105A7000062204F10A01934816F0EAF90622914938
:105A8000944816F0E5F99348007A20F00100401C94
:105A9000904908720846007A20F00200801C0872C3
:105AA0000846007A20F00400001D08728548FFF7C0
:105AB000B7FF844908818020C874022081F8500013
:105AC0008548007820F00400001D834908700CF020
:105AD00080F908F085FD0AF0C2FA7A4A58214FF49D
:105AE000967013F081F901210020FEF7F2FE03E029
:105AF0000420FEF76AFF00BF00BF002070BD70B534
:105B0000044600252046FEF7BCFF0546012D1FD1A7
:105B1000A07A48B16B4890F8510020F00100401C79
:105B2000684981F8510007E0664890F8510020F07C
:105B30000100644981F85100624A5132012140F26A
:105B40007D1013F051F901210020FEF7C2FE03E0A1
:105B50000420FEF73AFF00BF00BF002070BD7CB5F7
:105B6000044600BF574880894FF496714843C000EF
:105B70004FF47A7190FBF1F558A103C9CDE900010A
:105B80002046FEF77EFF0646012E4CD14D48C07CD4
:105B9000802804D00920FEF718FF00207CBD0520D6
:105BA0004849C87401204949F339087046480078CB
:105BB0004870454802782146444816F049F91720B4
:105BC00048490870062269464648401C16F040F9CC
:105BD0004FF47A7068434349C1F807003B480C30E2
:105BE000C1F80B00E17A3F48C173364890F83100A4
:105BF00000EB4001C1EBC0104FF6FF7101EAC0009D
:105C00003849A1F813000020C1F815002E4800788B
:105C10002E49F339887033480CF059F8A8B20021A6
:105C2000FEF757FE03E00420FEF7CFFE00BF00BFE3
:105C30000020B3E770B5044600252046FEF721FF9B
:105C40000546012D02D0022D11D100E000BFA07A3F
:105C50001C4981F8310001F13102012140F25D104F
:105C600013F0C2F801210020FEF733FE03E0042008
:105C7000FEF7ABFE00BF00BF002070BD2DE9F0476E
:105C800005460027AC7AEE7A4FF001084FF0010983
:105C90002846FEF7F6FE0746012F62D10948406DFF
:105CA00000F0804018B100200649887431E0212CB2
:105CB00024DA002C22DD0348807CA04214D14FF06E
:105CC000000926E038060060280000603F040060FC
:105CD000CD0D01009006006050000060FFFFFFFF47
:105CE000FFFF00002F050060FE48847400F11202DF
:105CF00001214FF49F7013F077F80AE0FE2C02DACE
:105D00004FF0000805E0FF2C01D0FE2C01D14FF030
:105D10000009042E09DAF348067500F11402012186
:105D20004FF4A07013F060F803E0FF2E01DA4FF09B
:105D30000008B9F1010F08D18020EA49C8740CF0BD
:105D400048F808F04DFC0AF08AF9B8F1010F04D1C7
:105D500001210020FEF7BDFD02E0C320FEF735FE65
:105D600003E00420FEF731FE00BF00BF0020BDE8C5
:105D7000F08770B50446002500262046FEF781FE18
:105D80000546012D02D0022D2CD100E000BFA07AE3
:105D9000322823DBA07A782820DCD248407DA17A03
:105DA000884201D100260AE00126A07ACD49487533
:105DB00001F11502012140F2411013F015F846B12E
:105DC0008020C849C8740CF004F808F009FC0AF0F7
:105DD00046F901210020FEF77CFD02E00120FEF7DC
:105DE000F4FD03E00420FEF7F0FD00BF00BF00203B
:105DF00070BDFEB5044600262046FEF742FE06466C
:105E0000012E02D0022E6AD100E000BFA07A15F068
:105E1000E6FE3C2190FBF1F201FB1200C0B28DF8CE
:105E20000600E07A15F0DBFE3C2190FBF1F201FB6D
:105E30001200C0B28DF80500207B15F0D0FE1821AD
:105E400090FBF1F201FB1200C0B28DF80400607B00
:105E500015F0C5FE0546C01705EBD0604011A5EB57
:105E60004010C0B28DF80300A07B15F0B8FE0D21E4
:105E700090FBF1F201FB1200C0B28DF80200E07B52
:105E800015F0ADFE642190FBF1F201FB120080B22F
:105E9000ADF80000BDF8000000F5FA6080B2ADF882
:105EA00000009148006820F00200801C8E490860C4
:105EB000684613F03CF88D480099016001994160F3
:105EC000BDF8081001818A48007820F00200801C8B
:105ED0008749087001210020FEF7FBFC03E0042045
:105EE000FEF773FD00BF00BF0020FEBD7D48808926
:105EF00040F20141081A80B27047F8B50646002703
:105F00003046FEF7BEFD0746012F42D100231A4658
:105F100078497948FEF766FC054610222846691C38
:105F2000CDB275490A54084641190120FEF748FCD4
:105F3000A81CC5B26B488089401E84B22046E11778
:105F400004EB11610912A4EB0121C9B28DF8001014
:105F500020128DF8010063484089401E84B220461B
:105F6000E11704EB11610912A4EB0121C9B28DF80C
:105F7000021020128DF803005F4948190422694677
:105F800015F066FF281DC5B229465B480EF09AFF42
:105F900003E00420FEF719FD00BF00BF0020F8BD9C
:105FA0002DE9F04706464FF0000A3046FEF769FD3E
:105FB0008246BAF1010F75D1307B1C2805DDC62061
:105FC000FEF703FD0020BDE8F08796F80C90B07A4C
:105FD000F17A00EB012085B242488089401E1FFA09
:105FE00080F8681C85B23F488089A84255DB0023B1
:105FF0001A4640494048FEF7F5FB04461022204669
:10600000611CCCB23C490A54084601190220FEF733
:10601000D7FBA01CC4B22046611CCCB2364901F8A3
:1060200000804FEA28222046611CCCB232490A5433
:106030002C488089401B484504DA2A48007B401BD5
:1060400000F0FF092046611CCCB22B4901F80090FA
:1060500000271AE005EB4502284B03EB8201264A94
:106060001019062215F0F4FEA01DC4B2002220462D
:10607000611CCCB220490A542046611CCCB21E4996
:106080000A54681C85B2781CC7B24F45E2DB214632
:1060900019480EF017FF03E004E0C520FEF795FC59
:1060A00000BF03E00420FEF790FC00BF00BF00200B
:1060B00089E72DE9F04FE1B08146002060908246EB
:1060C000012001904846FEF7DCFC609060980128B2
:1060D0007ED100231A4607490748FEF783FB044692
:1060E00010220DE03806006054000060EE360060BB
:1060F000500000606C0100605C020060900600606F
:106100002046611CCCB2FD490A54084601190320FF
:10611000FEF756FBA01CC4B209F10A0008F08EF984
:1061200080464FF6FF71884502D10020019009E0BA
:10613000404605F051FC82464FF6FF70824501D182
:10614000002001900198012843D1CAEB0A1000EB0E
:106150004A104FF4485101EBC00B02AA4FF4BC7136
:10616000584612F011FB9DF80A00142801DD142690
:1061700001E09DF80A602046611CCCB2DF490E5454
:10618000002722E004A931F8270005F0F6FA0546B9
:106190004FF6FF718D4216D005EB4502D84B03EB4D
:1061A0008201D64A1019062215F052FEA01DC4B273
:1061B00000222046611CCCB2D0490A542046611C02
:1061C000CCB2CE490A54781CC7B2B742DADB06E03B
:1061D0000AE000222046611CCCB2C8490A5421467C
:1061E000C6480EF06FFE03E00420FEF7EEFB00BF92
:1061F00000BF002061B0BDE8F08F7CB505466E1C85
:106200003078C0F3800000287ED100231A46BD49B3
:10621000BA48FEF7E7FA044610222046611CCCB2C9
:10622000B6490A5401A90420FEF7CAFA9DF80420D1
:106230002046611CCCB2B1490A549DF80520204685
:10624000611CCCB2AD490A54AF48C07C802803D150
:10625000AD4890F8500030B100222046611CCCB20D
:10626000A6490A5405E003222046611CCCB2A3498A
:106270000A54A5488089401E80B200909F490819A1
:106280000222694615F0E4FDA01CC4B20020009073
:106290009D48C08920B19C48C089401E80B20090B2
:1062A000964908190222694615F0D2FDA01CC4B215
:1062B000924908190222694615F0CAFDA01CC4B211
:1062C0009148C07C802806D001222046611CCCB2B7
:1062D0008A490A5405E000222046611CCCB2874955
:1062E0000A548948B0F840000090844908190222F5
:1062F000694615F0ADFDA01CC4B200222046611C09
:10630000CCB27E490A5400E01EE02046611CCCB2AB
:106310007A490A542046611CCCB278490A54204676
:10632000611CCCB275490A542046611CCCB2734939
:106330000A542046611CCCB270490A5421466F4869
:106340000EF0C0FD00207CBDC720FEF73EFB002004
:10635000F9E7F8B505466E1C3078C0F3800060BBE5
:1063600000231A4667496548FEF73CFA04461022A6
:106370002046611CCCB261490A5469466420FEF78C
:106380001FFA9DF800202046611CCCB25B490A54DC
:106390009DF801202046611CCCB258490A540819C6
:1063A000022259494A3115F053FDA01CC4B22146BE
:1063B00052480EF087FD0020F8BDC720FEF705FB10
:1063C0000020F9E72DE9F84F054605F1010A9AF892
:1063D0000000C0F3800000287ED1287B1C2805DD4A
:1063E000C620FEF7F2FA0020BDE8F88F95F80C9071
:1063F000A87AE97A00EB012086B243488089401EE2
:106400001FFA80F8701C86B23F488089B0427EDB5C
:1064100000231A463B493948FEF7E4F904461022A6
:106420002046611CCCB235490A5469466520FEF706
:10643000C7F99DF800202046611CCCB22F490A54B0
:106440009DF801202046611CCCB22C490A542046FC
:10645000611CCCB2294901F800804FEA282220466D
:10646000611CCCB225490A5427488089801B401CF6
:10647000484505DA2448007B801B401C00F0FF09DA
:106480002046611CCCB21D4901F8009000272DE088
:1064900006EB46021A4B03EB8201184A101906223A
:1064A00015F0D6FCA01DC4B200222046611CCCB25F
:1064B00012490A542046611CCCB210490A542046A5
:1064C000611CCCB20D490A5410222046611CCCB28A
:1064D0000A490A54002200E01EE02046611CCCB2AA
:1064E00006490A54701C86B2781CC7B24F45CFDBF0
:1064F000214602480EF0E6FC002075E75C020060D1
:10650000900600606C01006038060060FFE7C5205F
:10651000FEF75BFA002067E7C720FEF756FA002077
:1065200062E730B504460A460023002100BF15E0AB
:1065300000210AE0C3EBC300401C0844105C655C0A
:10654000A84200D003E0481CC1B20629F2DB00BF1C
:10655000062901D1012030BD581CC3B210789842E1
:10656000E6DC0020F7E730B502460021138800BFC3
:1065700011E001EB4100FD4D05EB8000C088984221
:1065800007D1FB48048A008A401CF94D2882204626
:1065900030BD481CC1B2F64880898842E9DC184603
:1065A000F6E730B504460A4600232CE000210AE055
:1065B000655CC3EBC300401C0844105C854200D0FE
:1065C00003E0481CC1B20629F2DB00BF062918D13E
:1065D0001078401E107000210BE0C3EBC3000830A0
:1065E0000844155CC3EBC300401C08441554481C08
:1065F000C1B21078C01AC0EBC0008842EDDC0020A8
:1066000030BD581CC3B210789842CFDC0020F7E7A9
:1066100070B5B2B0054600240026C821684615F0C2
:10662000FAFF2878012835DD00BF22E0C4EBC40161
:106630002944481C6946FFF774FFC0B900260EE0E4
:10664000C4EBC400401C3044295C701C9DF8002041
:10665000C2EBC20210440DF80010701CC6B2072E27
:10666000EEDB9DF80000401CC0B28DF80000601CFD
:1066700084B22878A042D9DC002404E01DF804008C
:106680002855601C84B29DF80000C0EBC000401C7F
:10669000A042F3DC002429E0002622E0C6EBC6027B
:1066A0002A44511C04EB4402B04B03EB8200062247
:1066B00015F0BEFB70B104EB4401AC4A02EB810063
:1066C0002946FFF76EFFAB48007820F00400001D5C
:1066D000A8490870287810B9002032B070BD701C2D
:1066E000C6B22878B042D9DC601C84B2A048808948
:1066F000A042D1DC0120F0E72DE9FE43054605F17B
:10670000010898F80000C0F38000002873D1AE7A29
:106710001C2E04DCFFF7EAFBB04200DB1EB9C620EA
:10672000FEF753F973E0002705F10A00FFF770FF49
:10673000002866D000BF61E08D488089B0F5806F89
:1067400053DC05F10B00072101FB07096C460C2106
:10675000684615F087FB06224946684615F078FB27
:106760002046FFF700FFE080207A20F00100207231
:10677000207A20F002002072002060727C4880891C
:1067800000EB4000794901EB8000216801606168FD
:106790004160A168816076488089401C7449888185
:1067A00008468089401EA1F84A00084690F850002B
:1067B00010B9022081F850006F4812F043FC6D4878
:1067C000007820F00200801C6A49087008460078B2
:1067D00020F00400001D08706548C07C812801D1AC
:1067E0000DF07CFB09F03BFC06E0C420FEF7EDF861
:1067F0000020BDE8FE830BE0781CC7B2A87AB8423F
:106800009ADC01210020FEF764F80020F1E702E0A5
:10681000C720FEF7DAF80020EBE770B50546002444
:106820000DE004EB4401514A02EB810006222946A7
:1068300015F0FEFA08B1012070BD601C84B24C480E
:106840008089A042EDDC0020F6E770B50646002402
:1068500036E004EB4401454A02EB81000622314652
:1068600015F0E6FA50B3254612E005EB45003F4926
:1068700001EB8001681C00EB40003C4A02EB800009
:1068800002680A6042684A6080688860681C85B255
:1068900037488089401EA842E7DC35488089401E81
:1068A0003349888108468089401EA1F84A00314852
:1068B000007820F00400001D2E490870601C84B28E
:1068C0002B488089A042C4DC002070BD2DE9F04136
:1068D0000446671C3878C0F3800000284FD1A67AA0
:1068E0001C2E03DDC620FEF770F847E0002500BF30
:1068F00032E004F10B01062202FB0510FFF78DFFC9
:1069000040B304F10B01062202FB0510FFF79DFFC7
:10691000174890F85000012803D00120144981F84D
:10692000500015480A3012F08DFB1248007820F014
:106930000200801C0F4908700846007820F004000F
:10694000001D08700A48C07C812801D10DF0C6FAEC
:1069500009F085FB681CC5B2B542CADB01210020E5
:10696000FDF7B7FF0020BDE8F08100009006006051
:1069700038060060500000609C36006002E0C720CE
:10698000FEF723F80020EEE72DE9F04190B0044631
:10699000661C04F10A07257C04F11108FE48C07C3E
:1069A000802806D00920FEF710F8002010B0BDE8BE
:1069B000F0813078C0F38000002846D1ADF80C009B
:1069C0009DF80E0065F387008DF80E000622F2494F
:1069D0000DF10F0015F03CFA05EB45004200414671
:1069E0000DF1150015F034FA9DF80E00012101EBB0
:1069F00090009DF80E1060F387018DF80E10681E50
:106A00000DF10F02062303FB00211A4601A815F021
:106A10001FFA50208DF80A00681CC1B201AB012298
:106A2000384605F0D5FA00231A4603A9184606F0A1
:106A300086FF0121384607F050FC09F010FB0121C8
:106A40000020FDF746FF0020B0E7C720FDF7BDFF9F
:106A50000020ABE770B50446651C2878C0F38000C1
:106A600028B901210020FDF734FF002070BDC720A8
:106A7000FDF7ABFF0020F9E770B50446651C2878E8
:106A8000C0F38000A0B96089C349A1F84A0001F1B0
:106A90004A0202214FF4BB7012F0A6F90BF099F9EB
:106AA00009F0DDFA01210020FDF713FF002070BD81
:106AB000C720FDF78AFF0020F9E770B50446651C82
:106AC0002878C0F3800050B98020B349C87408F01A
:106AD000BFF900213220FDF7FCFE002070BDC72069
:106AE000FDF773FF0020F9E70EB5AB48C07C8128A5
:106AF0003FD0A948808901283BDDA7488089A64965
:106B0000C989884235D0A54812F09CFA032010F0BC
:106B1000F1FEA2481438807EA0491439497E9F4A6C
:106B2000143A127ECDE9002102909C481438C37DAE
:106B3000827D818A9AA016F057F9974890F8500004
:106B4000012801D107F0DAFD01209F49087007F004
:106B500083FD9E48007820F00200801C9B4908704D
:106B600081208D49C8744FF0FF300BF0D1F901201E
:106B70000EBD0020FCE770B50446651C2878C0F304
:106B80008000E8B98448C07C812804D10920FDF741
:106B90001CFF002070BD8E48027821468A48F330E1
:106BA00015F056F98A4800788749487009F057FA75
:106BB00000213220FDF78DFEFFF796FF0020E9E768
:106BC000C720FDF702FF0020E4E770B50446651C0E
:106BD0002878C0F3800028B900213C20FDF779FE19
:106BE000002070BDC720FDF7F0FE0020F9E770B56A
:106BF0000446651C2878C0F3800028B901210020D4
:106C0000FDF767FE002070BDC720FDF7DEFE002007
:106C1000F9E770B50446651C2878C0F3800028B9F0
:106C200001210020FDF755FE002070BDC720FDF7B3
:106C3000CCFE0020F9E770B50446661C3078C0F33E
:106C4000800020B9C720FDF7C0FE002070BD52486B
:106C5000C07C802804D00920FDF7B7FE0020F5E7AE
:106C60005B48027821465848F33015F0F1F858484F
:106C700000785549887001F1F300FDF7AAFBC01CAC
:106C8000C5B2A81C205C18B1C320FDF79EFE3BE0F6
:106C9000681C205C012804D10020FDF796FE00202E
:106CA000D4E700204B49C871E81C215C49480173B6
:106CB0006019A0F1090106224648401C15F0C8F8E9
:106CC000354890F8310000EB4001C1EBC0104FF6A1
:106CD000FF7101EAC0003F49A1F813003A48F330C0
:106CE0002844001D88600020C1F81500202008708D
:106CF000374800783449487001200870022026493E
:106D0000C87434480AF0E3FF00209FE7F8B5324D1D
:106D10006C1C287820F0800080302870287820F0C3
:106D2000400040302870287820F03F000A3028705A
:106D3000607820F00F006070A07820F0F000A07064
:106D4000E07820F00F00E070E07820F0F000E070D4
:106D5000207920F001002071A07820F00F00A070B1
:106D6000207820F0F0002070207820F00100401CF6
:106D70002070207820F004002070002060712079BD
:106D800020F0FE002071207820F002002070207892
:106D900020F00800207021E038060060B036006066
:106DA0006372656174206E657420737461727420FF
:106DB00074696D653A25642D25642D25642025644C
:106DC0003A25643A256400004C03006050000060DE
:106DD000280000602F0500605C020060607820F0F1
:106DE000F0006070072669460220FDF7E9FC1422D6
:106DF0003146761C601E42549DF800203146761CB8
:106E000042549DF801203146761C425431460EF022
:106E100059F8F8BDFEB50446661C3078C0F3800012
:106E2000002864D1A07A14F0DAFE3C2190FBF1F244
:106E300001FB1200C0B28DF80600E07A14F0CFFE1C
:106E40003C2190FBF1F201FB1200C0B28DF805006D
:106E5000207B14F0C4FE182190FBF1F201FB12001C
:106E6000C0B28DF80400607B14F0B9FE0546C0176F
:106E700005EBD0604011A5EB4010C0B28DF80300C7
:106E8000A07B14F0ACFE0D2190FBF1F201FB12008F
:106E9000C0B28DF80200E07B14F0A1FE642190FBEB
:106EA000F1F201FB120080B2ADF80000BDF8000065
:106EB00000F5FA6080B2ADF80000684612F037F8CD
:106EC000FE4812F0BFF8FE48007820F00200801C57
:106ED000FB490870FB48006820F00200801CF9495B
:106EE000086001210020FDF7F4FC0020FEBDC72052
:106EF000FDF76BFD0020F9E770B50446651C2878A6
:106F0000C0F3800030BBA07A20B901210020FDF73A
:106F1000E0FC1DE0A17AEC4890F80C01081AEA495F
:106F200089780844E8498870A07A421C04F10A0173
:106F3000E64814F08DFF0021E34880F80A118278BA
:106F400000F1F301204614F083FF2046FFF773FEA3
:106F5000002070BDC720FDF738FD0020F9E770471D
:106F600010B502464FF00040002100BF22E0D84B90
:106F70001B6803F0004363B1D54B1B685B00D44C26
:106F8000236023461B68D34C24686340D04C2360A5
:106F900004E0CF4B1B685B00CD4C236002EA00038A
:106FA00033B1CB4B1B68CB4C24686340C84C236087
:106FB0004008491C2029DAD310BD2DE9F0410546CF
:106FC0000E460024002736E0C348007818B92F5930
:106FD000201D84B227E0C048007801280CD1BF48AA
:106FE00000780006295D00EB01402919B1F8011075
:106FF0004718E01C84B216E0B7480078022807D191
:10700000285BB649098800EB0147A01C84B20AE05E
:10701000B1480078032806D1285DB049097800EB13
:107020000167601C84B20020AB490870AC4847403F
:107030003846FFF795FF201DB042C5DD301BA6493D
:1070400008700846007818B90020A44908602BE0B1
:10705000A1480078012803D1285DA049086023E0F9
:107060009D480078022807D1601C285C295D00EB50
:1070700001209A49086017E09748007803280BD14F
:10708000285D0104601C285C01EB0021A01C285C29
:1070900008449249086007E0D62010F0FFFD002068
:1070A0008D4908708D490860BDE8F0814FF0FF30D0
:1070B000874908600020884908708849086070473F
:1070C0002DE9F8430546002705F10108F021854820
:1070D00014F0C8FE98F80000C0F3800000287DD1AD
:1070E00005F10A04207850B9FFF739FF002108465E
:1070F000FDF7EFFB00207C490860BDE8F8832078AD
:1071000003286CD1A07800286AD1607800284AD181
:10711000D4F80500002846D1B4F80900F02840DA78
:10712000002071490860D4F80B00704908600846D7
:107130000068B0F5F82F32D2FFF711FFB4F809104C
:10714000694A126802F5C01004F10B0211F026FB27
:10715000617A654A126802F5C010624A11F014FBA8
:10716000627A04F10B015F4814F062FE08B900274F
:1071700019E1B4F809005C49096808445A490860F3
:10718000FFF794FFB4F80900001F81B204F10F006B
:10719000FFF713FF012700205549086003E100278E
:1071A00001E10027FFE06078002857D1D4F80500FE
:1071B000B4F80310884251D24B48006800284DD0E3
:1071C00049480068001F49490968884246D2D4F8F6
:1071D000050047490968884205D802E016E1E1E068
:1071E000DEE00127DFE0B4F80900F02834DAD4F853
:1071F00005103F480068401C81422DD1B4F80910A9
:10720000394A126802F5C01004F10B0211F0C6FAF7
:10721000B4F80910344A126802F5C010314A11F06E
:10722000B3FA627A04F10B012E4814F001FE08B99A
:107230000027B8E0641DA0882B49096808442A4942
:10724000086020682A490860A188641F04F10B00C7
:10725000FFF7B3FE0127A6E00027A4E0607801282D
:107260007DD1D4F80500401CB4F80310884276D1D3
:107270001D480068002872D01B480068001F1B4989
:10728000096888426BD2D4F8050019490968884218
:1072900001D8012787E0B4F80900F0287CDAD4F897
:1072A000051013480068401C814275D111480090B8
:1072B000B4F809100C4A12681EE00000EE360060B7
:1072C00050000060540000604C03006058040060EF
:1072D0003800006034000060400000603C00006046
:1072E00049393D7148050060440000604800006075
:1072F0004C0000607E583F1502F5C01004F10B02EF
:1073000011F04CFAB4F80910FE4A126802F5C010E8
:10731000FD4A11F039FA627A04F10B01FA4814F0CF
:1073200087FD08B9002735E0B4F80900F549096878
:107330000844F4490860B4F809000A461288F34B7F
:107340001B88D21A801A001D81B204F10B00FFF7CE
:1073500034FEEF48006868B96A46042100E01DE089
:107360004FF47A7011F040FDD4F80500E949086047
:1073700002270FE000200090B4F80900E1490968F5
:10738000081AE04908606A4604214FF47A7011F047
:107390002BFD002707E0FFE7002704E0002702E0BD
:1073A000002700E000271FB94FF6FF70C4F8050062
:1073B00000231A46D849D948FDF714FA0646152283
:1073C0003046711CCEB2D5490A5401223046711C98
:1073D000CEB2D2490A5400223046711CCEB2CF49F7
:1073E0000A5488190422611D14F032FD301DC6B202
:1073F0003146CA480DF066FD022F05D14FF47A7070
:1074000010F027FA00F05EFB002076E6C448007812
:1074100018B10920FDF7D9FA55E0C248027829468B
:10742000BF48F33014F014FDBE480078BC498870A2
:1074300001F1F300FCF7CDFFC01CC6B2B848F33031
:107440008419B01C285C18B9B4F80900F02803DBD3
:10745000C320FDF7BAFA35E0617AB3488174B4F815
:10746000050081B2B04881810321417244F2472076
:10747000AD49A1F80700B4F80310AB48418104F10D
:107480000B00A949C1F80E00A819A0F109010622B4
:10749000A548401C14F0DCFC1620A34908704FF6E8
:1074A000FF70A1F813000020C1F815009D48007876
:1074B0009B4948700120087003209C49C8749A4871
:1074C0000AF005FC00BF002017E62DE9F043B3B039
:1074D000044604F1010898F80000C0F38000002879
:1074E00035D1D4F80A90D4F80E70658A9048814559
:1074F00028D17819B0F5006F1FD2002600BF16E022
:10750000A81BC82807DB01AAC821384611F0B7FC20
:1075100010F080F907E0A81B81B201AA384611F0EB
:10752000AEFC10F077F9C83706F1C80086B2AE425B
:10753000E6DB002033B0BDE8F083C320FDF745FA59
:107540000020F7E70A20FDF740FA0020F2E7C72005
:10755000FDF73BFA0020EDE7F8B50546D5F80A60DF
:107560006F1C3878C0F38000002834D17048864200
:107570002CD100231A4668496848FDF733F90446C0
:10758000F0222046611CCCB264490A5469460220AC
:10759000FDF716F99DF800202046611CCCB25F492A
:1075A0000A549DF801202046611CCCB25B490A5464
:1075B000081958225D4914F04BFC04F15800C4B27C
:1075C000214656480DF07EFC0020F8BD0A20FDF74C
:1075D000FCF90020F9E7C720FDF7F7F90020F4E7F0
:1075E0002DE9F0410446651CD4F80A602878C0F300
:1075F000800090B94E48864209D104F10E074B49EC
:107600003868486401210020FDF763F902E00A2090
:10761000FDF7DBF90020BDE8F081C720FDF7D5F9C3
:107620000020F8E70146002070472DE9F0419AB0AC
:107630000446671CD4F80A8001263878C0F380001D
:1076400088BB3B48804527D13848456CF006374910
:1076500048640DF058F906208DF8040008E001AAEE
:107660000621304608F051F89DF80400304486B2F7
:107670009DF804000628F2D000208DF804008DF853
:10768000050001E010F0C6F801A808F048FB00284A
:10769000F8D12648456402E00A20FDF796F900205B
:1076A0001AB0BDE8F081FFE7C720FDF78EF9002092
:1076B000F6E72DE9FF4105466E1CD5F80A7001A8D2
:1076C00011F0C0FC3078C0F3800000287FD118484A
:1076D000874275D100231A460F491048FDF782F8FA
:1076E0000446F0222146601CC4B20C48425469464C
:1076F0000620FDF765F89DF800202046611CCCB2FD
:10770000064917E04400006048050060480000603A
:10771000380000604C0000606C0100605C0200609A
:107720004C030060280000602F05006038060060F0
:10773000BCFE51090A549DF801202046611CCCB2C0
:10774000E8490A549DF80A0014F03CFA2146621CEC
:10775000D4B2E44A50549DF8090014F033FA21469B
:10776000621CD4B2DF4A50549DF8080014F02AFA83
:107770002146621CD4B2DB4A50549DF8070014F035
:1077800021FA2146621CD4B2D64A50549DF8060014
:1077900014F018FA2146621CD4B2D24A5054BDF8F3
:1077A0000410C8B214F00EFA2146621CD4B2CD4ABD
:1077B0005054214610460DF085FB04E007E0FFE73A
:1077C0000A20FDF702F9002004B0BDE8F081C720CF
:1077D000FDF7FBF80020F7E72DE9F0418EB00646F3
:1077E000771CD6F80A803878C0F38000002861D171
:1077F000BD48804557D100231A46BC49B948FCF71B
:10780000F1FF0446F0222046611CCCB2B5490A546F
:10781000084601190720FCF7D3FFA01CC4B201A938
:1078200006F10E0006F067FEBDF80400C2B2204665
:10783000611CCCB2AB490A549DF806008208204670
:10784000611CCCB2A7490A54BDF80400A0B90025B8
:1078500009E00DF10700425D2046611CCCB2A14950
:107860000A54681CC5B29DF80600800800EB400071
:10787000B5EB400FEDDB11E0002509E00DF107004D
:10788000425D2046611CCCB296490A54681CC5B2C0
:107890009DF806008008B5EB400FEFDB21469148CC
:1078A0000DF010FB02E00A20FDF78FF800200EB06B
:1078B000BDE8F081C720FDF788F80020F7E72DE943
:1078C000F04790B0054605F10109D5F80AA0EF8907
:1078D00095F8108099F80000C0F3800000284BD183
:1078E0008148824541D100231A4680497D48FCF7F2
:1078F00079FF0446F0222046611CCCB279490A5433
:10790000084601190820FCF75BFFA01CC4B2204602
:10791000611CCCB273490F543A122046611CCCB2A0
:1079200070490A54B8F10A0F01DD4FF00A086A469F
:107930004146384607F0E9FE002608E01DF806201B
:107940002046611CCCB267490A54701CC6B29DF82F
:10795000000000EB4000012101EB4000B042EDDCF3
:10796000214660480DF0AEFA02E00A20FDF72DF83E
:10797000002010B0BDE8F087C720FDF726F80020F2
:10798000F7E72DE9F04395B0044604F10108D4F877
:107990000A9098F80000C0F3800000283FD15248B8
:1079A000814535D100231A4650494E48FCF71AFF4D
:1079B0000546F0222846691CCDB24A490A540846B9
:1079C00041190920FCF7FCFEA81CC5B2A07B8DF86C
:1079D0000000E07B8DF80100684608F0A0F907463A
:1079E0008FB1002608E01DF806202846691CCDB29C
:1079F0003C490A54701CC6B29DF8080000EBC00058
:107A00000930B042EFDC294636480DF05BFA02E05F
:107A10000A20FCF7DAFF002015B0BDE8F083C7208C
:107A2000FCF7D3FF0020F7E730B587B0044600200D
:107A3000A086A1782EA015F0D7F9218B36A015F0DD
:107A4000D3F921783EA015F0CFF947A0216A15F0AF
:107A5000CBF994F86810012304F1340204F12400F6
:107A600004F014FB0546012D28D100208DF81800E4
:107A7000059094F86810491E04F13700062202FBB5
:107A80000100039004F13D00049094F86800801E0A
:107A9000C0B28DF8190001208DF81A009DF8190068
:107AA000401CC0B20121CDE9001003A80FC8FDF7AA
:107AB000E1F80020E0700320607001E001206070B8
:107AC00007B030BDBFF34F8F3148006800F4E0606D
:107AD00030490843001D2E490860BFF34F8F00BF97
:107AE000FEE700005C020060BCFE51096C01006012
:107AF0000D0A706D742D3E6379636C655F6E756DF4
:107B00002020202020202020202020202020203D58
:107B100025303264000000000D0A706D742D3E6D3A
:107B20007465645F6E756D20202020202020202049
:107B3000202020202020203D25303264000000003D
:107B40000D0A706D742D3E6D5F6375725F6C6576A6
:107B50002020202020202020202020202020203D08
:107B600025303264000000000D0A706D742D3E6DEA
:107B70005F696E646578202020202020202020204E
:107B8000202020202020203D2530346400000000EB
:107B90000CED00E00000FA050246FE4B002100BF9C
:107BA00004E0187850545B1C481CC1B20C29F8DB67
:107BB0000C20704710B502460B460020002104E05F
:107BC000545C0444E0B24C1CE1B29942F8DB10BDB5
:107BD00000B58DB0F04A07CA01AB07C304A814F082
:107BE000FDF99DF8130013F0EDFF8DF808009DF8E6
:107BF000120013F0E7FF8DF80900BDF81010C8B2AD
:107C000013F0E0FF8DF80A000DF10B0014F02EFACE
:107C10000AA8FFF7C1FF4E21E04814F023F94AF605
:107C2000AA20DE490A39C88040F2014048814BF25F
:107C3000010008820C210AA8FFF7BCFF1F2190FB5E
:107C4000F1F201FB1200401CD4490A398874642007
:107C500048750020087588750C220AA9CF4817308E
:107C600014F0F6F8092201A9CC480E3014F0F0F80F
:107C7000CA480A3890F82D0020F00F00C01CC749F0
:107C80000A3981F82D00084690F82D0020F0C00038
:107C9000403081F82D00084690F82D0020F01000AB
:107CA000103081F82D00084690F82D0020F02000BB
:107CB000203081F82D00084690F82E0020F020009A
:107CC00081F82E00084690F82E0020F0C00081F8C0
:107CD0002E00084690F82E0020F0070081F82E00B4
:107CE000084690F82E0020F01800103081F82E0081
:107CF000084690F82F0020F00F0081F82F0008466A
:107D000090F82F0020F0F00081F82F00084690F83E
:107D1000300020F00F00401C81F830003C2081F83A
:107D2000310040F69C104886F0208886C820C8861E
:107D3000142081F83800212081F83E00032081F8CA
:107D40003D00132081F83C00212081F83B000320F6
:107D500081F83A00132081F8390048F20A00A1F8AE
:107D600040001020A1F8480081F83F004006486517
:107D70008020C8740A4658214FF4967011F034F8E8
:107D8000062286490A3907A814F062F84AF6AA20A2
:107D9000ADF822009DF8240020F00100401C8DF871
:107DA00024009DF8240020F00200801C8DF824009F
:107DB0009DF8240020F00400001D8DF824009DF89B
:107DC000240020F0F8008DF8240074490A398989CC
:107DD00001EB4101724A02EB81000C2207A914F069
:107DE00037F86E480A388089401C6C490A39888106
:107DF0006C48007820F00400001D6A4908700846AD
:107E0000007820F00100401C08700DB000BD10B5D6
:107E100013F08AFE61480A38808900EB400020F0A8
:107E200040415F4813F089FE5F49886613F07CFE8D
:107E30005A480A38C0894FF4BC72504381085B48E5
:107E400013F07BFE5849C86610BD70B513F06CFE88
:107E500052480A38808900EB400020F040415048E9
:107E600013F06BFE06465048806EB04202D0FFF71A
:107E7000AFFE3BE013F058FE48480A38C0894FF483
:107E8000BC7250438108494813F057FE06464648E5
:107E9000C06EB04206D006F004FC01203F490A390A
:107EA00081F85000002410E0C4EB041101EB4411F0
:107EB0003E4A32F8310003F060FC05464FF6FF7091
:107EC000854200D106E0601C84B234480A38C0897B
:107ED000A042E9DC00BF4FF6FF70854206D106F0F4
:107EE000E0FB01202D490A3981F8500070BD30B502
:107EF00089B00025284A0C32D2E900109268CDE9F9
:107F00000102009103A814F069F89DF80F0013F026
:107F100059FE8DF804009DF80E0013F053FE8DF805
:107F20000500BDF80C10C8B213F04CFE8DF8060029
:107F30000DF1070014F09AF8184A0A3A58214FF444
:107F4000967010F09CFF802014490A39C8740922E9
:107F5000694612480E3013F06BFF054615B9FFF75E
:107F600037FE0CE006A8FFF717FE0C2206A90B4807
:107F7000173013F05DFF05460DB9FFF729FE00200D
:107F800006490A3948640FF090FE0FF094FE03484A
:107F90000A380DE0E8F7FF1FC8E701084206006055
:107FA00090060060500000609C360060903A0060CF
:107FB0008089012865DD00240FE004EB4401F94BC2
:107FC00003EB810204EB44014FF4807303EB810067
:107FD0000C2110F0D9FB601C84B2F3488089A042C8
:107FE000EBDC0622F049EF4813F022FFF0B90C2138
:107FF000EC4813F037FF0622EB49EA4813F028FF5C
:108000004AF6AA20E749C8800846007A20F0010015
:10801000401C08720846007A20F00200801C08729A
:108020000846007A20F00400001D0872002414E0C5
:10803000C4EB041101EB4411DC4B03EBC102C4EBB4
:10804000041101EB44114FF4485303EBC1004FF40A
:10805000BC7110F099FB601C84B2D348C089A04267
:10806000E6DCD34A04214FF48D6010F008FFD04ABB
:10807000121D042140F26C4010F001FFFFF7E5FEF5
:1080800021E00C21C74813F0EDFE0622C649C54881
:1080900013F0DEFE4AF6AA20C249C8800846007ADC
:1080A00020F00100401C08720846007A20F002000F
:1080B000801C08720846007A20F00400001D087237
:1080C0000120B949888103F0F5F9BA48006820F029
:1080D0000200B84908600846006820F00100086006
:1080E0000846006820F004000860AF49D1F821007C
:1080F00014F062FA09F06DFE032008F0C6FC0CF0E3
:1081000005FF09F065FE09F0F3FF09B030BD10B5B9
:10811000A7486838008830B1A54A683A0A214FF468
:10812000806010F061FEA2486838408930B1A04AF2
:108130005E3A0A2140F20A4010F056FE9C48683828
:10814000808A30B19A4A543A0A2140F2144010F021
:108150004BFE97486838C08B30B1954A4A3A0A219D
:1081600040F21E4010F040FE91486838C08B68B164
:108170008F4A4A3A0A2140F21E4010F035FE8C4ADE
:108180004A3A01214FF4856010F02EFE8848683885
:10819000408D30B1864A3E3A0A2140F22A4010F022
:1081A00023FE83486838C08F30B1814A2A3A0A21B9
:1081B00040F23E4010F018FE7D486838B0F84800A4
:1081C00030B17B4A203A0A214FF4896010F00CFE4E
:1081D00077486838B0F85C0030B1754A0C3A0A212B
:1081E00040F25C4010F000FE71486838B0F8520070
:1081F00030B16F4A163A0A2140F2524010F0F4FDB5
:108200006B4A04214FF48D6010F0EEFD684A121D98
:10821000042140F26C4010F0E7FD10BD2DE9F04163
:108220000746002F68D064480078C0F38000D8B1BA
:108230006148007820F004005F49087000240FE0D6
:1082400004EB4401574B03EB810204EB44014FF470
:10825000807303EB81000C2110F088FA601C84B25B
:1082600051488089A042EBDC53480078C0F30010ED
:1082700000B35148007820F010004F4908700024E6
:1082800014E0C4EB041101EB4411484B03EBC102B1
:10829000C4EB041101EB44114FF4485303EBC1004C
:1082A0004FF4BC7110F062FA601C84B23E48C08981
:1082B000A042E6DCFFF7ABFD3F48007800F001008C
:1082C00058B13D48007820F001003B490870364A1B
:1082D00058214FF4967010F087FD37480078C0F3AE
:1082E0004000002807D03448007820F002003249CE
:1082F0000870FFF70CFF3FE12D480C3810F005FF28
:108300000546B5F5167F2BD929480C3810F09AFE92
:108310002948007800F0010080B12748007820F05B
:1083200001002549087025A014F05EFD01F026FA31
:108330001D4A58214FF4967010F056FD1E480078E3
:10834000C0F3400060B11C48007820F002001A49D8
:1083500008701FA014F048FD01F010FAFFF7D7FED7
:108360001348683810F0D1FE054611485E3810F009
:10837000CCFE0646B54200D235460A2D58D10E48ED
:108380000078C0F3800060B10B48007820F0040052
:108390000949087012A014F027FD01F0EFF900243C
:1083A00038E045E09006006038060060903A0060D2
:1083B0000437006054000060500000600D0A7374C0
:1083C0006F7220686F737420696E666F0000000022
:1083D0000D0A73746F722073797320696E666F0073
:1083E0000D0A73746F72206E6F646520696E666F1C
:1083F0000000000004EB4401FA4B03EB810204EBA4
:1084000044014FF4807303EB81000C2110F0AEF9AE
:10841000601C84B2F4488089A042EBDCFFF7F7FCD3
:10842000F24A04214FF48D6010F0DEFC10F0A8F940
:10843000EF480078C0F3C000002852D0EC48007824
:1084400020F00800EA490870EAA014F0CDFC01F021
:1084500095F900240FE004EB4401E24B03EB8102A9
:1084600004EB44014FF4807303EB81000C2110F006
:108470007DF9601C84B2DC488089A042EBDC0024DA
:1084800014E0C4EB041101EB4411E04B03EBC10217
:10849000C4EB041101EB44114FF4485303EBC1004A
:1084A0004FF4BC7110F062F9601C84B2CE48C089F0
:1084B000A042E6DCFFF7ABFCCC4A04214FF48D6010
:1084C00010F092FCC94A121D042140F26C4010F0D9
:1084D0008BFCC54A58214FF4967010F085FC10F0C3
:1084E0004FF9C2482A3810F010FE05464AF6C0007F
:1084F000854241D9BE480078C0F34010E0BBBC487B
:10850000007820F020002030B9490870C0A014F095
:108510006BFC01F033F9B6480078C0F3001058B393
:10852000B348007820F01000B1490870002414E02E
:10853000C4EB041101EB4411B44B03EBC102C4EBD7
:10854000041101EB44114FF4485303EBC1004FF405
:10855000BC7110F00BF9601C84B2A348C089A04222
:10856000E6DCFFF754FCA14A121D042140F26C40E6
:1085700010F03AFC10F004F9BDE8F08110B50024C9
:1085800006219948FFF716FB112190FBF1F201FB40
:108590001200801DC4B2204610BDFEB5684610F022
:1085A00051FD914890F8500040B19048683810F063
:1085B000ACFD0646022E01D9FEF796FAFFF7DEFF64
:1085C00005469848007830B101281FD002282FD0E6
:1085D00003284AD130E0012414E005EB840018217F
:1085E00090FBF1F201FB12009DF80410884207D1C4
:1085F0009DF80400A84203D001208A49087003E0D6
:10860000601CC4B2062CE8DB00BF32E07648C07CB8
:10861000802805D10220834908700CF081FA06E019
:108620007148C07C832802D102207E49087020E076
:1086300003207C4908701CE001240DE005EB840058
:10864000182190FBF1F201FB12009DF80410884202
:1086500000D103E0601CC4B2062CEFDB00BF062C87
:1086600002DB00206F49087003E000206D490870AC
:1086700000BF00BF6C48007830B101280CD0022840
:1086800022D003282CD123E09DF80400A84202D177
:1086900001206549087027E05348C07C80280BD131
:1086A0005148C08950498989884205D002205E49D5
:1086B0000870FEF719FA06E04B48C07C812802D109
:1086C0000220594908700FE003205749087000BF85
:1086D0009DF80400A84202D000205349087003E02E
:1086E00000205149087000BF00BF50480078C0F317
:1086F0004000A8B90FF0B3F84FF47A71B0FBF1F075
:108700004B490968401AB0F5617F09D90FF0A7F805
:108710004FF47A71B0FBF1F045490860FEF7F6FAC4
:108720004448007820B101280ED003282AD11DE04A
:108730009DF80400042803D09DF80400152802D1F8
:1087400001203C49087021E02748C07C802805D1E1
:1087500006F07EFB03203749087006E02248C07C03
:10876000822802D10320334908700FE09DF80400ED
:10877000042806D09DF80400152802D000202D49B9
:10878000087003E000202B49087000BF00BFFEBD49
:1087900005E0FFF702FF4FF47A7014F00FFEF8E7E0
:1087A00006E04FF47A7014F009FE0020FFF736FD62
:1087B000F7E710B54FF4BC711FA014F015FB0221B0
:1087C00023A014F011FB012127A014F00DFB0321BD
:1087D0002BA014F009FB01212FA014F005FB0521AB
:1087E00066E0000090060060380600600437006014
:1087F000500000600D0A73746F72206E6F646526FE
:10880000726F7574657220696E666F00903A0060D1
:108810000D0A73746F7220726F7574657220696EC1
:10882000666F32005A00006059000060540000601A
:108830005C00006058000060524F5554455F53493A
:108840005A452020202020203A25640D0A000000EF
:1088500052545F4E424E554D5F5348494654202076
:108860003A25640D0A00000052545F4E424E554DA9
:108870005F53495A452020203A25640D0A00000024
:1088800052545F4C45565F5348494654202020209F
:108890003A25640D0A00000052545F4C45565F5360
:1088A000495A4520202020203A25640D0A00000066
:1088B00055A014F099FA012159A014F095FA01215C
:1088C0005DA014F091FA01215BA014F08DFA07214C
:1088D0005FA014F089FA012163A014F085FA082141
:1088E00067A014F081FA4FF4A0716BA014F07CFA29
:1088F0004FF4A4716EA014F077FA302172A014F036
:1089000073FA77A014F070FA0C2177A014F06CFAC7
:1089100006217CA014F068FA022181A014F064FA08
:10892000082186A014F060FA01218BA014F05CFAF3
:108930000A2190A014F058FA012195A014F054FADD
:1089400067A014F051FA042198A014F04DFA022106
:108950009BA014F049FA01219EA014F045FA0321CE
:10896000A1A014F041FA0121A4A014F03DFA5CA0EA
:1089700014F03AFA1021A6A014F036FA0121AAA0A8
:1089800014F032FA0121AEA014F02EFA0221B2A0A6
:1089900014F02AFA0E21B6A014F026FA50A014F012
:1089A00023FA5821B8A014F01FFA1221BEA014F027
:1089B0001BFA0121C4A014F017FA0C21CAA014F06C
:1089C00013FA0221D0A014F00FFA2121D6A014F03E
:1089D0000BFA0C21DCA014F007FA0A21E2A014F033
:1089E00003FA0221E8A014F0FFF90621EEA014F02A
:1089F000FBF90221F4A014F0F7F90821FAA014F011
:108A0000F3F9022100E2000052545F4355525052E4
:108A1000455F5348494654203A25640D0A0000003A
:108A200052545F4355525052455F53495A45202096
:108A30003A25640D0A00000052545F4D46425F53D0
:108A4000495A4520202020203A25640D0A000000C4
:108A500052545F43464E5F534849465420202020DD
:108A60003A25640D0A00000052545F43464E5F539E
:108A7000495A4520202020203A25640D0A00000094
:108A800052545F4E42535F534849465420202020A1
:108A90003A25640D0A00000052545F4E42535F5362
:108AA000495A4520202020203A25640D0A00000064
:108AB00052545F504154485F534849465420202047
:108AC0003A25640D0A00000052545F504154485F3B
:108AD00053495A45202020203A25640D0A00000001
:108AE0000D0A0D0A000000004E4F44455F53495ADD
:108AF00045202020202020202020203A25640D0A17
:108B0000000000004E4F44455F4E455441444452DE
:108B10005F5348494654203A25640D0A000000007E
:108B20004E4F44455F4E4554414444525F53495A69
:108B30004520203A25640D0A000000004E4F4445B0
:108B40005F464C475F534849465420202020203A36
:108B500025640D0A000000004E4F44455F464C4717
:108B60005F53495A452020202020203A25640D0AD1
:108B7000000000004E4F44455F434E545F53484948
:108B8000465420202020203A25640D0A00000000D1
:108B90004E4F44455F434E545F53495A4520202071
:108BA0002020203A25640D0A000000004E425F5349
:108BB000495A45202020202020203A25640D0A0013
:108BC0004E425F525353495F5348494654203A2519
:108BD000640D0A004E425F525353495F53495A4550
:108BE00020203A25640D0A004E425F524154455FF1
:108BF0005348494654203A25640D0A004E425F52BC
:108C00004154455F53495A4520203A25640D0A00D6
:108C1000504154485F53495A4520202020202020AD
:108C2000203A25640D0A0000504154485F524154D7
:108C3000455F534849465420203A25640D0A0000F8
:108C4000504154485F524154455F53495A45202092
:108C5000203A25640D0A0000504154485F52454CAB
:108C600041595F5348494654203A25640D0A000093
:108C7000504154485F52454C41595F53495A452031
:108C8000203A25640D0A0000484F53545F4E4F446C
:108C9000455F53495A4520202020202020202020B5
:108CA0003A25640D0A000000484F53545F4348477B
:108CB0005F53484946542020202020202020202097
:108CC0003A25640D0A000000484F53545F4348475B
:108CD0005F53495A4520202020202020202020209A
:108CE0003A25640D0A000000484F53545F43555223
:108CF0004E554D5F534849465420202020202020C7
:108D00003A25640D0A000000484F53545F43555202
:108D10004E554D5F53495A452020202020202020C9
:108D20003A25640D0A000000484F53545F4D4355E7
:108D300049445F53484946542020202020202020C9
:108D40003A25640D0A000000484F53545F4D4355C7
:108D500049445F53495A45202020202020202020CC
:108D60003A25640D0A000000484F53545F4D584E99
:108D7000554D5F5348494654202020202020202074
:108D80003A25640D0A000000484F53545F4D584E79
:108D9000554D5F53495A4520202020202020202077
:108DA0003A25640D0A000000484F53545F4E455465
:108DB0004144525F5348494654202020202020201F
:108DC0003A25640D0A000000484F53545F4E455445
:108DD0004144525F53495A45202020202020202022
:108DE0003A25640D0A000000484F53545F50414E2D
:108DF00049445F5348494654202020202020202009
:108E00003A25640D0A00000040A013F0EDFF142184
:108E100046A013F0E9FF01214CA013F0E5FF10215B
:108E200052A013F0E1FF022158A013F0DDFF15213D
:108E30005EA013F0D9FF012164A013F0D5FF162125
:108E40006AA013F0D1FF012170A013F0CDFF0E2115
:108E500076A013F0C9FF02217CA013F0C5FF1821F2
:108E600082A013F0C1FF092188A013F0BDFF2D21BE
:108E70008EA013F0B9FF012194A013F0B5FF2E21AD
:108E80009AA013F0B1FF0121A0A013F0ADFF2F2194
:108E9000A6A013F0A9FF0121ACA013F0A5FF30217B
:108EA000B2A013F0A1FF0121B8A013F09DFF322161
:108EB000BEA013F099FF0221C4A013F095FF342146
:108EC000CAA013F091FF0221D0A013F08DFF36212C
:108ED000D6A013F089FF0221DCA013F085FF382112
:108EE000E2A013F081FF0121E8A013F07DFF3921FA
:108EF000EEA013F079FF0121F4A013F075FF3A21E1
:108F0000FAA013F071FF012100E20000484F535412
:108F10005F50414E49445F53495A4520202020204C
:108F2000202020203A25640D0A000000484F5354A9
:108F30005F504F524C45565F5348494654202020BD
:108F4000202020203A25640D0A000000484F535489
:108F50005F504F524C45565F53495A4520202020C0
:108F6000202020203A25640D0A000000484F535469
:108F70005F52454E554D445F53484946542020208A
:108F8000202020203A25640D0A000000484F535449
:108F90005F52454E554D445F53495A45202020208D
:108FA000202020203A25640D0A000000484F535429
:108FB0005F525353495448525F5348494654202006
:108FC000202020203A25640D0A000000484F535409
:108FD0005F525353495448525F53495A4520202009
:108FE000202020203A25640D0A000000484F5354E9
:108FF0005F52535652305F53484946542020202038
:10900000202020203A25640D0A000000484F5354C8
:109010005F52535652305F53495A4520202020203A
:10902000202020203A25640D0A000000484F5354A8
:109030005F52544E554D5F534849465420202020DE
:10904000202020203A25640D0A000000484F535488
:109050005F52544E554D5F53495A452020202020E1
:10906000202020203A25640D0A000000484F535468
:109070005F5645525F534849465420202020202007
:10908000202020203A25640D0A000000484F535448
:109090005F5645525F53495A45202020202020200A
:1090A000202020203A25640D0A000000484F535428
:1090B0005F4C42315F5348494654202020202020F5
:1090C000202020203A25640D0A000000484F535408
:1090D0005F4C42315F53495A4520202020202020F8
:1090E000202020203A25640D0A000000484F5354E8
:1090F0005F4C42325F5348494654202020202020B4
:10910000202020203A25640D0A000000484F5354C7
:109110005F4C42325F53495A4520202020202020B6
:10912000202020203A25640D0A000000484F5354A7
:109130005F4C42335F534849465420202020202072
:10914000202020203A25640D0A000000484F535487
:109150005F4C42335F53495A452020202020202075
:10916000202020203A25640D0A000000484F535467
:109170005F4C42345F534849465420202020202031
:10918000202020203A25640D0A000000484F535447
:109190005F4C42345F53495A452020202020202034
:1091A000202020203A25640D0A000000484F535427
:1091B0005F4D5842435449454D5F534849465420FA
:1091C000202020203A25640D0A000000484F535407
:1091D0005F4D5842435449454D5F53495A452020FD
:1091E000202020203A25640D0A000000484F5354E7
:1091F0005F4D584652414D454C454E5F5348494698
:10920000542020203A25640D0A000000484F535492
:109210005F4D584652414D454C454E5F53495A4566
:10922000202020203A25640D0A000000484F5354A6
:109230005F4D585446464C454E5F5348494654206E
:10924000202020203A25640D0A000000484F535486
:109250005F4D585446464C454E5F53495A45202071
:10926000202020203A25640D0A000000484F535466
:109270005F55504441544554494D455F5348494614
:10928000542020203A25640D0A000000484F535412
:109290005F55504441544554494D455F53495A45E3
:1092A000202020203A25640D0A000000484F535426
:1092B0005F524C53594541525F5348494654202010
:1092C000202020203A25640D0A000000484F535406
:1092D0005F524C53594541525F53495A4520202013
:1092E000202020203A25640D0A000000484F5354E6
:1092F0005F524C534D4F4E5F5348494654202020F7
:10930000202020203A25640D0A0000003BA013F025
:109310006BFD3B2141A013F067FD012147A013F035
:1093200063FD3C214DA013F05FFD012153A013F01C
:109330005BFD3D2159A013F057FD01215FA013F003
:1093400053FD3E2165A013F04FFD01216BA013F0EA
:109350004BFD402171A013F047FD022177A013F0CF
:1093600043FD44217DA013F03FFD042183A013F0B1
:109370003BFD422189A013F037FD02218FA013F09D
:1093800033FD482195A013F02FFD02219BA013F07F
:109390002BFD4A21A1A013F027FD0221A7A013F065
:1093A00023FD4C21ADA013F01FFD0421B3A013F049
:1093B0001BFD5021B9A013F017FD0121BFA013F030
:1093C00013FD5121C5A013F00FFD0121CBA013F017
:1093D0000BFD5421D1A013F007FD0421D7A013F0F9
:1093E00003FDAFF6041013F0FFFC7021DBA013F0B7
:1093F000FBFCAFF6141013F0F7FC10BD484F5354AC
:109400005F524C534D4F4E5F53495A452020202008
:10941000202020203A25640D0A000000484F5354B4
:109420005F524C534441595F5348494654202020D1
:10943000202020203A25640D0A000000484F535494
:109440005F524C534441595F53495A4520202020D4
:10945000202020203A25640D0A000000484F535474
:109460005F524754594541525F5348494654202062
:10947000202020203A25640D0A000000484F535454
:109480005F524754594541525F53495A4520202065
:10949000202020203A25640D0A000000484F535434
:1094A0005F5247544D4F4E5F534849465420202049
:1094B000202020203A25640D0A000000484F535414
:1094C0005F5247544D4F4E5F53495A45202020204C
:1094D000202020203A25640D0A000000484F5354F4
:1094E0005F5247544441595F534849465420202015
:1094F000202020203A25640D0A000000484F5354D4
:109500005F5247544441595F53495A452020202017
:10951000202020203A25640D0A000000484F5354B3
:109520005F434F4D524154455F53484946542020B4
:10953000202020203A25640D0A000000484F535493
:109540005F434F4D524154455F53495A45202020B7
:10955000202020203A25640D0A000000484F535473
:109560005F4442475357495443485F534849465420
:10957000202020203A25640D0A000000484F535453
:109580005F4442475357495443485F53495A452023
:10959000202020203A25640D0A000000484F535433
:1095A0005F464C41534853495A455F5348494654D6
:1095B000202020203A25640D0A000000484F535413
:1095C0005F464C41534853495A455F53495A4520D9
:1095D000202020203A25640D0A000000484F5354F3
:1095E0005F48415244574152455645525F5348499E
:1095F000465420203A25640D0A000000484F535479
:109600005F48415244574152455645525F53495A6B
:10961000452020203A25640D0A000000484F53548D
:109620005F4E455453495A455F534849465420209C
:10963000202020203A25640D0A000000484F535492
:109640005F4E455453495A455F53495A452020209F
:10965000202020203A25640D0A000000484F535472
:109660005F534F4654574152455645525F53484900
:10967000465420203A25640D0A000000484F5354F8
:109680005F534F4654574152455645525F53495ACE
:10969000452020203A25640D0A000000484F53540D
:1096A0005F4144444E4F44455F534849465420204F
:1096B000202020203A25640D0A000000484F535412
:1096C0005F4144444E4F44455F53495A4520202052
:1096D000202020203A25640D0A000000484F5354F2
:1096E0005F464C475F5348494654202020202020A5
:1096F000202020203A25640D0A000000484F5354D2
:109700005F464C475F53495A4520202020202020A7
:10971000202020203A25640D0A000000484F5354B1
:109720005F574F524B4D4F44455F53484946542075
:10973000202020203A25640D0A000000484F535491
:109740005F574F524B4D4F44455F53495A45202078
:10975000202020203A25640D0A0000005359534967
:109760004E464F5F53495A4520202020202020207C
:10977000202020203A25640D0A00000000B587B0A3
:1097800004A80FF05FFC9DF816009DF815109DF8D9
:109790001420CDE9002102909DF813309DF812208D
:1097A000BDF81010E8A013F01FFB07B000BD024683
:1097B000002000BF01E01054401C8842FBD37047DA
:1097C00070B503460C460020002105E05D5C665C38
:1097D000B54200D0401C491C9142F7D370BD2DE921
:1097E000F0410024002740F20511DF48FFF7DFFFBA
:1097F0000FF056F80546A90ADCA013F0F5FA40F27E
:109800000511E2A013F0F0FA0021E8A013F0ECFA41
:1098100013F028FE064600BF12E0D34A40F20511BD
:1098200020460FF0E1FAE8A013F0DEFA642060436E
:10983000B0FBF5F84146E2A013F0D6FA04F20514A5
:10984000AC42EAD313F00EFE801BE049B0FBF1F806
:109850004146DFA013F0C8FA0021E6A013F0C4FAD5
:1098600013F000FE0646002419E0E94A40F2051113
:1098700020460FF004FBD4A013F0B6FA6420604336
:10988000B0FBF5F84146CEA013F0AEFA40F2051257
:10989000DF49B548FFF794FF074404F20514AC42D2
:1098A000E3D313F0DFFD801BC849B0FBF1F841465C
:1098B000D8A013F099FA3946DFA013F095FAE9A081
:1098C00013F092FABDE8F0812DE9F0410024002761
:1098D00040F20511A448FFF76AFF0EF0C8FC0546E8
:1098E000A90AE6A013F080FA40F20511A7A013F030
:1098F0007BFA0021EAA013F077FA13F0B3FD0646D5
:1099000000BF12E040F20512214697480EF0EFFE2C
:10991000ADA013F069FA64206043B0FBF5F841464E
:10992000A7A013F061FA04F20514AC42EAD313F0D5
:1099300099FD801BA549B0FBF1F84146DFA013F06B
:1099400053FA0021E6A013F04FFA13F08BFD064600
:10995000002419E040F205122146AD480EF0E9FE60
:1099600099A013F041FA64206043B0FBF5F841463A
:1099700093A013F039FA40F20512A5497A48FFF78F
:109980001FFF074404F20514AC42E3D313F06AFD51
:10999000801B8E49B0FBF1F84146D8A013F024FAA1
:1099A0003946DFA013F020FAE9A013F01DFABDE854
:1099B000F0812DE9F047002400270EF0C2FB81461C
:1099C0004946E9A013F010FA40F205116648FFF786
:1099D000EEFE0EF04FFC0546A90AE8A013F004FACB
:1099E000EFA013F001FA13F03DFD064613F03AFD27
:1099F000801B7649B0FBF1F84146F2A013F0F4F970
:109A000040F2051161A013F0EFF913F02BFD0646AB
:109A10000021F5A013F0E8F900BF12E0524A40F22D
:109A2000051120460EF0A2FE67A013F0DDF96420B8
:109A30006043B0FBF5F8414661A013F0D5F904F29C
:109A40000514A5F20510A042E8D80EF099FE13F017
:109A500009FD801B5D49B0FBF1F84146E9A013F018
:109A6000C3F913F0FFFC06460021F0A013F0BCF987
:109A7000002419E0664A40F2051120460EF084FEEB
:109A800051A013F0B1F964206043B0FBF5F84146F2
:109A90004BA013F0A9F940F205125D493248FFF7D7
:109AA0008FFE074404F20514A5F20510A042E1D888
:109AB00013F0D8FC801B4549B0FBF1F84146E2A009
:109AC00013F092F93946E9A013F08EF9F3A013F0E0
:109AD0008BF9BDE8F087F0B587B00026224C02ADC7
