:020000040800F2
:1040000000040020C5880008D3880008D58800086F
:10401000D7880008D9880008DB8800080000000065
:10402000000000000000000000000000DD88000823
:10403000DF88000800000000E188000865480008EB
:10404000E5880008E5880008E5880008FB610008AD
:10405000E5880008E5880008E5880008E58800088C
:10406000E5880008E5880008E5880008E58800087C
:10407000E5880008E5880008E5880008E58800086C
:10408000E5880008E5880008E5880008E58800085C
:10409000E5880008E5880008E5880008E58800084C
:1040A000E5880008E5880008E5880008E58800083C
:1040B000E588000883620008E5880008E5880008B4
:1040C000E5880008E5880008E5880008E58800081C
:1040D000E5880008E5880008014E0008E58800082A
:1040E000E5880008E5880008E5880008E5880008FC
:1040F000E5880008E5880008E5880008E5880008EC
:10410000E5880008E5880008E5880008E5880008DB
:10411000E5880008E5880008E5880008E5880008CB
:10412000E5880008E5880008E5880008E5880008BB
:10413000DFF80CD004F09EFD00480047C1410008A4
:10414000280B00602DE9F04104460E461746012574
:10415000208820B16A280CD06F282BD11EE028E0DF
:1041600064212B4800F044F900BF00256A2020801C
:1041700000BF1DB1264800F061F910B90120BDE86B
:10418000F08100BF002000F04DFC6421204800F0C9
:104190002FF900BF00256F20208000BF1DB11C48F3
:1041A00000F04CF908B90120E9E700BF002000F059
:1041B000F3FBD5E700BF0025002020800320DEE7C9
:1041C00000F0C5FB13A004F017FF00F06BFB00F03C
:1041D00030FA0021134800F006FA134800F032F8D4
:1041E00012A004F009FF09E000BF00F0A7FA0028C0
:1041F000FBDC13480068401C11490860F4E701B576
:1042000002E00098401E009000980028F9D108BDF7
:10421000A8000060496E697469616C6973696E67B2
:104220000D0A000020000060F091000850726F63DA
:1042300065737365732072756E6E696E670D0A0023
:104240000000006070B50446002505E054F8250024
:10425000002100F0C8F96D1C54F825000028F5D1A4
:1042600070BD70B50446002504E054F8250000F048
:10427000D8F96D1C54F825000028F6D170BD000057
:1042800070B58D49096819B900218C4A116019E08F
:1042900000F034FB88490C68D4E9001211440D1A6F
:1042A000A4680AE0D4E900121144091AA94203D211
:1042B000D4E9001211440D1AA468002CF2D141195E
:1042C0007E4A116070BD10B57D4800F07DFA10BDCA
:1042D0002DE9F04705460E4690464FF00109288823
:1042E00010B159285DD109E000207349086057E0FA
:1042F00000BF4FF000095920288000BFB9F1000F1E
:1043000002D10120BDE8F08700BF872E21D14046B1
:1043100004E0694909688968674A11606649096863
:1043200021B165490968C9688142F2D062490968CA
:1043300071B161490C6808E0A168C968814203D184
:10434000A1688968A16000E0A468A1680029F3D190
:1043500026E0822E00D023E000BF002756480468E4
:104360001BE0204600F067FAA8B122468821E068E9
:1043700000F0F8F968B90020E06017B1A068B860F3
:1043800002E04D49A06808600020A060FFF778FFB8
:10439000E3E7FFF798FF2746A468002CE1D100BFB0
:1043A000A6E700BF4FF00009002028800320A9E7FE
:1043B00070B50446FFF787FFE06868B13E480568BE
:1043C00008E0A54205D13F480068E060FFF758FFCC
:1043D00070BDAD68002DF4D13A480068E060364801
:1043E0000068A06034480460FFF74AFF00BFEFE7B1
:1043F00070B504460D462946204600F009FA2046CD
:10440000FFF7D6FF70BD10B50446204600F008FA4D
:104410002046FFF7CDFF10BD10B50446204600F042
:1044200004FA2046FFF7C4FF10BD70B504460D46E0
:10443000206828442060FFF723FF70BD0146C8684C
:1044400008B9012070470020FCE70146D1E90002CD
:10445000104470470146086870471748006808B163
:10446000012070470020FCE700B5FFF7F6FF10B110
:104470001248006800BD0020FCE770B505460E48F4
:104480000068854207D10C48006880680A490860C6
:10449000FFF7F6FE0CE00848046800E0A46814B1D9
:1044A000A068A842FAD11CB1A868A060FFF7E8FE96
:1044B0000020A860E86070BD180000601C0000606B
:1044C0002000006034000060C5480078C4490978C5
:1044D000491CC34A117070470146887B08B101200E
:1044E00070470020FCE72DE9F04104460E46BD4828
:1044F0000768BD48056800E02D68A54201D0002D81
:10450000FAD10DB9BDE8F0812046FFF7E5FFD0B143
:104510000020A073B448056807E0AC4204D02246EE
:104520008721284600F02AF82D68002DF5D1A068D3
:1045300048B1B44207D0AB4804600022832104F1A3
:104540000C00A3689847A8480068844205D1A64893
:1045500000680068A44908600CE0A348056806E00C
:104560002868A04202D12068286002E02D68002D52
:10457000F6D100BF9B48076000BFC3E72DE9F041BB
:1045800004460E461746A07B00F00100C8B1A068A3
:10459000B8B1944804600220A0733A46314604F151
:1045A0000C00A36898470546022D03D0032D01D0C7
:1045B000832E04D121462046FFF795FF01E001201C
:1045C000A073BDE8F0812DE9F04104460D46164682
:1045D00084480768324629462046FFF7CFFF8148C6
:1045E0000760BDE8F08170B504460E467E48056858
:1045F00000E02D68A54201D0002DFAD1A54200D1DE
:1046000070BD794800682060774804600120A0737D
:104610000020A081324681212046FFF7D4FF00BF51
:10462000EEE710B504466F4801682046FFF75BFFD0
:1046300010BD8A206A49087000206C4908706C49D6
:1046400008706949086067490860704710B5002024
:1046500068490870644804680BE0E07B40B10120C1
:10466000A0730020E073002282212046FFF786FF1E
:104670002468002CF1D110BD10B55D4800780028E9
:104680005BDD5A48007800EB40005B4911F82000E0
:104690005A4908705548007800EB4000564901EB34
:1046A00080004068564908605048007800EB4000A0
:1046B000514901EB80008068524908604B490978F4
:1046C000481CC11700EBD1614911A0EB4111474AC9
:1046D000117047480078401E4549087049480068F5
:1046E000D8B9414800684849086011E0414800785D
:1046F00008B1FFF7ABFF42480268404801784248E2
:104700000068FFF73BFF4048006800683E490860CA
:104710003D4800680028E9D10FE03848007881283A
:1047200003D1012037490968887335480268334846
:10473000017834480068FFF721FF10BD10B52D48FF
:10474000007808B1FFF782FFFFF796FF284800784E
:1047500028490978084410BD25480078254909787A
:104760000844704730B5034621480078202801D11D
:10477000012030BD1D4C24781D4D2D782C44E0B215
:10478000C41700EBD4646411A0EB44141F4D2C70CB
:104790002846007800EB4000174C04F8201028460B
:1047A000007800EB400004EB80004260284600786F
:1047B00000EB400004EB800083600D480078401C53
:1047C0000B4C20700020D4E748B1817B012902D036
:1047D000817B022903D10121C173064A1170704700
:1047E0003800006034000060300000603A00006073
:1047F000390000603B000060B80000603C000060D1
:104800004000006044000060480000604C00006010
:1048100070B504460D46656000F070F8206070BD0C
:10482000D0E9001211440160704710B5044600F051
:1048300065F8206010BD70B5044600F05FF821688F
:10484000401A451C6068A84201D2012070BD0020BA
:10485000FCE710B5044600F051F8D4E90012114409
:10486000081A10BD10B528480068401C2649086089
:10487000FFF7F3FD38B1FFF7F7FD234909688842D8
:1048800001D8FFF720FD21480068401E1F4908603D
:1048900038B91F480068401C1D49086064201B4946
:1048A000086010BD30B51B4800686422B0FBF2F10F
:1048B000481EB0F1807F01D301201BE0481E4FF05D
:1048C000E022506150170F22002807DA13071D0E4F
:1048D000114B00F00F04241F1D5503E013071C0E9D
:1048E0000E4B1C5400BF00204FF0E02290610720C7
:1048F0001061002008B100BFFEE730BD024800682B
:10490000704703480068704750000060580000601E
:10491000540000609000006018ED00E000E400E04A
:10492000704710B502F043FC10BD10B501214020C6
:1049300002F039F803F0CCFC10BD70B504460D460A
:1049400003F0C6FC2946204603F0CBFC70BD10B531
:1049500003F04DFFFFF7E4FF00F043F801F060FCC7
:1049600000F088F900F04FFB01F0FAF801F0F2FBDB
:10497000FFF7DBFF10BD704706480068704700B5C1
:104980000146FFF7F9FF421800BFFFF7F5FF90421D
:10499000FBD300BD7800006010B5044634B1012C93
:1049A0000AD0022C0ED0032C18D111E04FF4007164
:1049B000554801F0F8FD12E04FF48061524801F0D3
:1049C000F2FD0CE04FF400614F4801F0ECFD06E011
:1049D0004FF480514C4801F0E6FD00E000BF00BFFD
:1049E00010BD08B50121080201F0EAFF4FF4F050B4
:1049F000ADF8000003208DF8020010208DF80300B0
:104A00006946414801F020FD0020FFF7C5FF012065
:104A1000FFF7C2FF0220FFF7BFFF0320FFF7BCFF35
:104A200008BD704710B5044634B1012C0AD0022CE1
:104A30000ED0032C18D111E04FF40071324801F070
:104A4000B0FD12E04FF480612F4801F0AAFD0CE0A8
:104A50004FF400612C4801F0A4FD06E04FF48051B2
:104A6000294801F09EFD00E000BF00BF10BD70B5F9
:104A7000044634B1012C13D0022C20D0032C3CD19D
:104A80002CE04FF40071204801F07EFDC0F10100E0
:104A9000C5B22A464FF400711B4801F086FD2DE097
:104AA0004FF48061184801F06FFDC0F10100C5B2FC
:104AB0002A464FF48061144801F077FD1EE04FF460
:104AC0000061114801F060FDC0F10100C5B22A4645
:104AD0004FF400610C4801F068FD0FE04FF4805185
:104AE000094801F051FDC0F10100C5B22A464FF45A
:104AF0008051054801F059FD00E000BF00BF70BDC6
:104B000070470420704700000020014038B504467B
:104B10004FF4407001F0CAFB012C04D0022C12D0DB
:104B2000032C30D11FE025208DF8000005208DF8E2
:104B3000010000208DF8020001208DF80300684676
:104B400001F0B9FB20E026208DF8000006208DF84A
:104B5000010000208DF8020001208DF80300684656
:104B600001F0A9FB10E027208DF8000007208DF848
:104B7000010000208DF8020001208DF80300684636
:104B800001F099FB00E000BF00BF38BD1FB504462F
:104B9000606800902089ADF80400A089ADF8060097
:104BA0006089ADF80800E089ADF80C000C20ADF884
:104BB0000A002078012804D0022814D0032836D116
:104BC00023E06946C24801F0A2FF0121C04802F07B
:104BD0002AF8012240F22551BD4802F030F80120A8
:104BE000FFF794FF24E06946BA4801F090FF0121E5
:104BF000B84802F018F8012240F22551B54802F0F9
:104C00001EF80220FFF782FF12E06946B24801F069
:104C10007EFF0121B04802F006F8012240F2255142
:104C2000AD4802F00CF80320FFF770FF00E000BF72
:104C300000BF1FBD1FB501208DF800004FF41650B6
:104C400001904FF48050ADF808008010ADF80A00D4
:104C50000020ADF80C00ADF80E006846FFF796FF97
:104C60004FF4E130019002208DF800006846FFF714
:104C70008DFF1FBD08B50121052001F0A1FE012116
:104C8000880301F09DFE0121480401F0A6FE4FF4C7
:104C90008060ADF8000004208DF8030069468F485D
:104CA00001F0D2FB4FF40070ADF8000003208DF846
:104CB000020018208DF803006946884801F0C4FB03
:104CC0000820ADF8000004208DF8030069468348F1
:104CD00001F0BAFB0420ADF8000003208DF80200BB
:104CE00018208DF8030069467C4801F0ADFBFFF702
:104CF000A1FF08BD2DE9FF4105460E4614461F469B
:104D00001CB90020ADF8040003E04FF48050ADF86A
:104D100004000096ADF80670ADF808400020ADF82C
:104D20000C000C20ADF80A00012D04D0022D0FD08C
:104D3000032D27D119E00021654801F074FF694671
:104D4000634801F0E4FE0121614801F06CFF1AE0C4
:104D50000021604801F067FF69465E4801F0D7FE18
:104D600001215C4801F05FFF0DE000215A4801F08D
:104D70005AFF6946584801F0CAFE0121564801F021
:104D800052FF00E000BF00BFBDE8FF8110B5002268
:104D900040F225514E4801F052FF10BD10B50122DE
:104DA00040F225514A4801F04AFF10BD10B50022DB
:104DB00040F22771464801F042FF10BD10B50122B4
:104DC00040F22771424801F03AFF10BD10B5044689
:104DD000214643A004F010F910BD00204749087097
:104DE00048708870704710B5FFF7D0FF0020444925
:104DF00008704870887043490860FFF7CFFF10BD06
:104E000010B540F22551334801F0FEFF00284ED086
:104E1000304801F079FF3C493C4A127888540846F2
:104E20003A4A1278815C2B4801F06AFF00BF4021AA
:104E3000284801F0D3FF0028F9D0334833490978D6
:104E4000405C08281ED131480078D8B12F4800783E
:104E5000401E2E49087020211E4801F051FF00BF5E
:104E600040211C4801F0BAFF0028F9D00821194858
:104E700001F046FF00BF4021164801F0AFFF0028B7
:104E8000F9D014E0204821490978405C0D2803D16D
:104E900001201F4908700AE01C480078401C1B498B
:104EA000087008460078F02801DD0020087010BD69
:104EB00070B504460D46E1B2064801F021FF00BF7F
:104EC0004021044801F08AFF0028F9D0204670BD37
:104ED0000038014000440040004800400008014004
:104EE0000D0A4552524F5221204552524F52204EE8
:104EF000554D2049533A25640D0A000038020060E0
:104F0000300300605C000060280400606000006006
:104F10006100006000B585B01021FE4801F041FB42
:104F20000221FC4801F03DFB0020ADF800004FF4E9
:104F30008270ADF802000020ADF804000220ADF848
:104F400006000120ADF808004002ADF80A0010206C
:104F5000ADF80C000020ADF80E000720ADF81000F1
:104F60006946ED4801F0BAFF0121EB4802F05BF819
:104F70004FF0FF30E949086005B000BD10B50446A8
:104F800000BF0221E44802F0D2F80028F9D02146FF
:104F9000E14802F079F800BF0121DF4802F0C7F8CC
:104FA0000028F9D0DC4802F071F8C0B210BD2DE93C
:104FB000F0410024002500260027A0461021D548F6
:104FC00001F0F1FA9F20FFF7D9FFA520FFF7D6FFE8
:104FD0000546A520FFF7D2FF0646A520FFF7CEFF26
:104FE0000746A520FFF7CAFF80461021C94801F0F7
:104FF000D8FA280640EA064040EA072040EA0804BA
:105000002046BDE8F08108B50121042001F0D8FC5C
:105010000121102001F0D4FC0121080301F0D0FC93
:1050200003208DF8020018208DF803002020ADF831
:1050300000006946B74801F007FA8020ADF800008B
:105040006946B44801F000FA4020ADF800000420A1
:105050008DF803006946AF4801F0F6F91020ADF86D
:1050600000008DF803006946AD4801F0EDF910210C
:10507000AB4801F096FA2020ADF8000010208DF822
:1050800003006946A64801F0DFF92021A44801F099
:1050900088FA1020ADF800008DF8030069469D489D
:1050A00001F0D2F90220ADF8000010208DF80300C5
:1050B0006946984801F0C8F9FFF72CFFFFF777FF22
:1050C0009849086008BD10B5A520FFF757FF10BD2F
:1050D00010B510218F4801F066FA0620FFF74EFF49
:1050E00010218C4801F05DFA10BD10B5002410218C
:1050F000884801F058FA0520FFF740FF00BFA520BF
:10510000FFF73CFF044604F001000028F7D110210E
:10511000804801F046FA10BD4FF40010704710B5FA
:10512000FFF7D6FF10217B4801F03DFAC720FFF7BB
:1051300025FF1021774801F034FAFFF7D6FF10BDA4
:1051400010B50446FFF7C4FF1021724801F02BFA96
:10515000D820FFF713FFC4F30740FFF70FFFC4F396
:105160000720FFF70BFFE0B2FFF708FF10216948A7
:1051700001F017FAFFF7B9FF10BD10B50446FFF7AD
:10518000A7FF1021634801F00EFA2020FFF7F6FE7A
:10519000C4F30740FFF7F2FEC4F30720FFF7EEFE6B
:1051A000E0B2FFF7EBFE10215A4801F0FAF9FFF7E1
:1051B0009CFF10BD4FF48030704710B50446FFF7D8
:1051C00087FF1021534801F0EEF9DB20FFF7D6FEF0
:1051D000C4F30740FFF7D2FEC4F30720FFF7CEFE6B
:1051E000E0B2FFF7CBFE10214A4801F0DAF9FFF7F1
:1051F0007CFF10BD70B505460C461646FFF768FFEC
:105200001021444801F0CFF90220FFF7B7FEC4F3A4
:105210000740FFF7B3FEC4F30720FFF7AFFEE0B28D
:10522000FFF7ACFE03E02878FFF7A8FE6D1C300006
:10523000A6F10106F7D11021364801F0B2F9FFF7C7
:1052400054FF70BD10B538480078012811D133499A
:10525000096821F0FF00FFF7B0FF3048006820F038
:10526000FF014FF480723148FFF7C4FF00202E4940
:10527000087010BD70B505460C461646102125482D
:1052800001F091F90320FFF779FEC4F30740FFF71F
:1052900075FEC4F30720FFF771FEE0B2FFF76EFE64
:1052A00004E0A520FFF76AFE28706D1C3000A6F10F
:1052B0000106F6D11021174801F073F970BD2DE9F0
:1052C000F05F06460C4617464FF0000AD146CB4623
:1052D000C846E019B0F5001F02D90020BDE8F09FD4
:1052E000200AE119B0EB112F7ED004F0FF0BCBF5B3
:1052F0008078A7EB08074FEA172A07F0FF0907484D
:1053000000680012B0EB242F33D004480068401C22
:1053100080B10DE0000801400030014064000060F1
:10532000001001406C00006068000060280500600B
:10533000FFF788FF24F0FF014FF48072EC48FFF77D
:1053400099FFE5B204E03078E9494855761C6D1CB8
:10535000E0B24044A842F6D824F0FF00FFF72DFF4A
:1053600024F0FF014FF48072E148FFF743FF44440B
:1053700016E0E5B204E03078DD494855761C6D1C36
:10538000E0B24044A842F6D824F0FF00FFF715FF32
:1053900024F0FF014FF48072D548FFF72BFF4444FF
:1053A00015E0002504E03078D1494855761C6D1C85
:1053B000FF2DF8D924F0FF00FFF7FFFE24F0FF01D6
:1053C0004FF48072CA48FFF715FF04F580745FEA56
:1053D0000A00AAF1010AE4D1B9F1000F10D04FF48C
:1053E00080722146C24800E010E0FFF743FF00252D
:1053F00004E03078BE494855761C6D1C4D45F8D305
:10540000BC4804600120BC49087033E0B94800681A
:105410000012B0EB242F1FD0B6480068401C08B122
:10542000FFF710FF24F0FF014FF48072B048FFF740
:1054300021FFE5B204E03078AD494855761C6D1C7B
:10544000E0B23844A842F6D824F0FF00A949086029
:105450000120A94908700DE0E5B204E03078A449C4
:105460004855761C6D1CE0B23844A842F6D801209D
:10547000A1490870012031E770B504460D46164673
:105480002A4621463046FFF71AFF70BD10B5FFF7D8
:10549000D9FE10BD70B504460D4616462A46214673
:1054A0003046FFF7E7FE70BD2DE9F05F04460F467A
:1054B00015464FF0000AD146CB46C84604F0FF0B14
:1054C000CBF58078200AE119B0EB112F05D0A7EBBE
:1054D00008074FEA172A07F0FF09E019B0F5001F87
:1054E00002D90020BDE8F09FB8F1000F1DD024F0D4
:1054F000FF00824A4FF48071FFF7CCFFE6B204E070
:1055000028787E4988556D1C761CE0B24044B04234
:10551000F6D824F0FF00FFF750FE24F0FF014FF40F
:1055200080727648FFF766FE44440DE024F0FF00E9
:10553000FFF743FE4FF4807221462846FFF75AFEDC
:1055400004F5807405F580755FEA0A00AAF1010A86
:10555000ECD1B9F1000F1AD024F0FF00674A4FF4E4
:105560008071FFF797FFE6B204E028786349885519
:105570006D1C761C4E45F8D324F0FF00FFF71DFE8E
:1055800024F0FF014FF480725C48FFF733FE0120E6
:10559000A8E710B5044600BF0221594801F0C7FD35
:1055A0000028F9D02146564801F06EFD00BF0121C8
:1055B000534801F0BCFD0028F9D0514801F066FDC8
:1055C000C0B210BD10B502214E4800F0ECFF06201D
:1055D000FFF7DFFF02214B4800F0E3FF10BD10B5DD
:1055E0000221484800F0DFFF0420FFF7D2FF02212C
:1055F000444800F0D6FF10BD10B5002402214148F8
:1056000000F0D1FF0520FFF7C4FF00BFA520FFF782
:10561000C0FF044604F001000028F7D102213948F8
:1056200000F0BFFF10BD70B504460D461646FFF7EB
:10563000C9FF0221334800F0B6FF0220FFF7A9FF9F
:10564000C5F30720FFF7A5FFE8B2FFF7A2FF03E0CD
:105650002078FFF79EFF641C3000A6F10106F7D109
:105660000221284800F09DFFFFF7B9FFFFF7C4FFB4
:1056700070BD70B504460D4616460221214800F063
:1056800092FF0320FFF785FFC5F30720FFF781FF97
:10569000E8B2FFF77EFF04E0A520FFF77AFF207055
:1056A000641C3000A6F10106F6D10221154800F075
:1056B00078FF70BD4FF40040704770B504460D464A
:1056C00016466019B0F5004F01D9002070BD2A467A
:1056D00021463046FFF7A7FF0120F7E770B50446E3
:1056E0000D4616462A4621463046FFF7C2FF70BDDA
:1056F0002805006064000060680000602806006003
:1057000000300140000801404FF6FF707047022052
:1057100000BF0100A0F10100FBD1704708B50121D5
:10572000092001F04DF903208DF8020014208DF8B6
:1057300003004FF44060ADF800006946FC4800F0FB
:1057400083FE4FF40060FA49103108604010086091
:1057500008BD00B54FF40060F54910310860FFF74F
:10576000D6FF4FF48060F24910310860FFF7CFFF99
:10577000EF480830006800F4006008B9012000BD5F
:105780004FF40060EA4914310860FFF7C0FF4FF49E
:105790008060E74914310860FFF7B9FFE44808303A
:1057A000006800F4006008B10220E8E70020E6E7A6
:1057B00000B54FF40060DE4914310860FFF7A7FF21
:1057C0004FF48060DA4910310860FFF7A0FF4FF412
:1057D0000060D74910310860FFF799FF00BD00B5A0
:1057E0004FF40060D24914310860FFF790FF4FF486
:1057F0008060CF4910310860FFF789FF4FF4806067
:10580000CB4914310860FFF782FF00BD00B54FF4AB
:105810000060C74910310860FFF779FF4FF48060DE
:10582000C34910310860FFF772FF4FF48060C04930
:1058300014310860FFF76BFF00BD10B503464FF44D
:105840008060BB4914310860002421E003F080002F
:1058500028B14FF40060B6491031086004E04FF4FD
:105860000060B349143108605806030EFFF74FFF7C
:105870004FF48060AE4910310860FFF748FF4FF4E5
:105880008060AB4914310860FFF741FF601CC4B26F
:10589000082CDBDB4FF40060A54910310860FFF7EE
:1058A00036FF4FF48060A24910310860FFF72FFFE8
:1058B0009F480830006800F4006030B14FF4806009
:1058C0009B4914310860002010BD4FF48060984956
:1058D000143108600120F7E710B54FF400609449D7
:1058E000103108604010091D08600023002419E0F1
:1058F0004FF480608E4910310860FFF708FF5806AA
:10590000030E8B480830006800F4006008B143F0D3
:1059100001034FF48060864914310860FFF7F7FEF9
:10592000601CC4B2082CE3DB184610BD30B500245F
:105930000025FFF70EFF04460CB1012030BDA02565
:105940002846FFF77AFF0446012C01D00220F5E734
:105950000020F3E7F0B505460E460024002700BFFF
:10596000FFF7E4FF0028FBD1FFF7F3FE04460CB17C
:105970000120F0BDA0273846FFF75FFF0446012C49
:1059800001D00220F5E72812FFF757FF0446012C4B
:1059900001D00220EDE7E8B2FFF74FFF0446012CEB
:1059A00001D00220E5E73046FFF747FF0446012C0F
:1059B00001D00220DDE7FFF7FBFE0020D9E72DE94B
:1059C000F04F05460F46904699460024A346002610
:1059D00007EB85101FFA80FA00BFFFF7A7FF00282A
:1059E000FBD1FFF7B6FE044614B10120BDE8F08FED
:1059F0004FF0A00B5846FFF720FF0446012C01D0C2
:105A00000220F3E74FEA2A20FFF717FF0446012C94
:105A100001D00220EAE70AF0FF00FFF70EFF04467C
:105A2000012C01D00220E1E700260AE019F8060067
:105A3000FFF703FF0446012C01D00220D6E7701CBB
:105A4000C6B24645F2DBFFF7B3FE0020CEE7F0B565
:105A500005460E460024002700BFFFF767FF002819
:105A6000FBD1FFF776FE04460CB10120F0BDA02764
:105A70003846FFF7E2FE0446012C01D00220F5E78C
:105A80002812FFF7DAFE0446E8B2FFF7D6FE044616
:105A9000012C01D00220E9E7FFF75BFE0446A127B5
:105AA0003846FFF7CAFE0446012C01D00220DDE78C
:105AB000FFF712FF3070FFF7A9FEFFF779FE002015
:105AC000D4E72DE9F04306460F4690460024A14650
:105AD000002500BFFFF72AFF0028FBD1FFF739FEA2
:105AE000044614B10120BDE8F0834FF0A0094846F8
:105AF000FFF7A3FE0446012C01D00220F3E7301289
:105B0000FFF79BFE0446F0B2FFF797FE0446012C18
:105B100001D00220E7E7FFF71CFE04464FF0A10981
:105B20004846FFF78AFE0446012C03D00220DAE73C
:105B3000000C014000250DE0FFF7CEFE08F805003F
:105B4000781EA84202D0FFF74AFE01E0FFF75EFE92
:105B5000681C85B2BD42EFDBFFF72AFE0020C2E7DA
:105B600010B5FFF7DBFD10BD2DE9FC4F04460D46D7
:105B700017464FF000092046E11704EB9161C1F38D
:105B80008F16E11704EB91618911A4EB8111C9B261
:105B90000191E11704EB91618911A4EB8111C1F12D
:105BA000400101F0FF086019C11700EB9161C1F3DA
:105BB0008F1A6019C11700EB91618911A0EB811157
:105BC000C9B20091AAEB06001FFA80FB45450CDC28
:105BD00000BFEAB23B4630460199FFF7F0FE0028CD
:105BE000F7D12F44701C86B20BE000BF3B46424603
:105BF00030460199FFF7E3FE0028F7D14744701CB7
:105C000086B2BBF1010F16DD4FF000090FE000BFB7
:105C10003B46402200213046FFF7D1FE0028F7D155
:105C20004037701C86B209F101001FFA80F9ABF110
:105C300001004845EBDCB24508D100BF3B460021DE
:105C40003046009AFFF7BBFE0028F7D1BDE8FC8F75
:105C50002DE9F04104460E46904601203F49087068
:105C600004F4803038B1A7B235464246294638465A
:105C7000FFF77AFF1AE0A01900F4803078B1A7B2DC
:105C8000784285B2424629463846FFF76DFF08EB59
:105C90000502701B81B20020FFF766FF06E0A7B285
:105CA0003546424629463846FFF75EFF00202B491D
:105CB00008702B480078012802D10020284908707C
:105CC000BDE8F081F0B505460E461746002400BF3A
:105CD00006E039192A1990B2FFF7B9FE601C84B2A8
:105CE000B442F6DBF0BD2DE9F04104460E46904685
:105CF00001201A49087004F4803038B1A7B2354643
:105D0000424629463846FFF7DDFF1AE0A01900F4A5
:105D1000803078B1A7B2784285B2424629463846EB
:105D2000FFF7D0FF08EB0502701B81B20020FFF7E0
:105D3000C9FF06E0A7B23546424629463846FFF776
:105D4000C1FF00200549087005480078012802D1EC
:105D5000002003490870BDE8F08100007100006078
:105D6000700000600146CA1701EB92729210A1EB1D
:105D700082022AB9642291FBF2F302FB131232B9B8
:105D80004FF4C87291FBF2F302FB13120AB901201F
:105D900070470020FCE7F0B504460025208840F25B
:105DA000B271884204DB208840F63301884201DD6D
:105DB0000020F0BD40F2B2760AE03046FFF7D2FF95
:105DC00010B1FE48054401E0FD480544701C86B250
:105DD0002088B042F1DCA078401EC7B2002610E057
:105DE000F848805D40F2A321484305EBC0152088A8
:105DF000FFF7B8FF18B1012E01D1F3480544701C1C
:105E000086B2BE42ECDBE078401E40F2A32148435C
:105E100005EBC0152079C0EB4011C1EB002005EB6C
:105E200000156079C0EB001005EB8005A0790544F2
:105E3000E64805600120BCE7F0B503460C46154670
:105E4000642093FBF0F0C6B2642093FBF0F700FBF4
:105E50001730C1B2132E02DD01F16400C1B2084651
:105E6000CF1701EB977701EBA707BAB2072092FB98
:105E7000F0F700FB172082B25719601EDFF850C3FD
:105E80001CF80000384482B2CF1701EB9777BF109F
:105E9000A1EB87071FB9032C01DA501E82B207203D
:105EA00092FBF0F700FB1720C0B2F0BDF0B505463D
:105EB000002400260027C5480768C348B7FBF0F454
:105EC000ACB140F2B2760EE03046FFF74BFF30B196
:105ED000B4F5B77F02D3A4F5B77402E006E0A4F2EC
:105EE0006D14701C86B2B4F5B67FEDD800BF2E805D
:105EF000002615E02888FFF735FF30B1012E04D1C8
:105F00001D2C01D31D3C09E00CE0AE48805DA04291
:105F100003D8AC48805D241A00E003E0701C86B210
:105F20001C2CE7D200BF701CA870601CE870A6484B
:105F3000B7FBF0F100FB11744FF46160B4FBF0F0BB
:105F400028714FF46160B4FBF0F100FB11403C217B
:105F5000B0FBF1F068713C20B4FBF0F100FB1140A4
:105F6000A871EA78A9782888FFF766FFE871012010
:105F7000F0BDF0B504460025208840F2B271884299
:105F800004DB208840F63301884201DD0020F0BDAB
:105F900040F2B2760AE03046FFF7E4FE10B18748DF
:105FA000054401E086480544701C86B22088B04252
:105FB000F1DCA078401EC7B2002610E08148805D69
:105FC00040F2A321484305EBC0152088FFF7CAFE25
:105FD00018B1012E01D17C480544701C86B2BE4226
:105FE000ECDBE078401E40F2A321484305EBC015EE
:105FF0002079C0EB4011C1EB002005EB0015607962
:10600000C0EB001005EB8005A07905446F480068DF
:10601000401BBCE72DE9F04305460E460027B84675
:10602000288840F2B271884204DB288840F63301A8
:10603000884202DD0020BDE8F08340F2B2740AE03D
:106040002046FFF78FFE10B15C48074401E05C4832
:106050000744601C84B22888A042F1DCA878401E66
:1060600000F0FF09002410E05648005D40F2A32133
:10607000484307EBC0172888FFF774FE18B1012CBE
:1060800001D151480744601C84B24C45ECDBE878F0
:10609000401E40F2A321484307EBC0172879C0EB0C
:1060A0004011C1EB002007EB00176879C0EB00102E
:1060B00007EB8007A8790744308840F2B271884224
:1060C00004DB308840F63301884201DD0020B2E76E
:1060D00040F2B2740AE02046FFF744FE10B13748A0
:1060E000804401E036488044601C84B23088A0427D
:1060F000F1DCB078401E00F0FF09002410E03148C8
:10610000005D40F2A321484308EBC0183088FFF738
:1061100029FE18B1012C01D12B488044601C84B2A7
:106120004C45ECDBF078401E40F2A321484308EBDD
:10613000C0183079C0EB4011C1EB002008EB00180B
:106140007079C0EB001008EB8008B0798044A8EBB0
:10615000070070E71FB501214FF0C05000F03DFC73
:10616000012001F04CF901F0DDF84FF4407000F02F
:10617000B0FB012000F0B3FB01F095F801F08AF8C4
:106180000121084601F02AF801F084F84FF223407B
:1061900001F05AF801F07EF8002001F0CEF84FF43B
:1061A000E06000F083F803208DF8000000208DF8F7
:1061B000010008208DF8020001200BE00085E201BB
:1061C0008033E101049200088051010074000060F6
:1061D000F89100088DF80300684600F06CF801A8FB
:1061E00002F0D7F8BDF8040000F5FA6080B2ADF80F
:1061F000040001A8FFF7CFFD1FBD10B5012001F07D
:1062000077F848B1012001F083F801F043F8034822
:106210000068401C0149086010BD00007400006067
:106220001FB50121022000F0D8FB0E20ADF80400BC
:1062300041F61F40ADF800000020ADF80600ADF8B3
:1062400002006946174801F009FA01221146154873
:1062500001F07BFD0121134801F05CFD4FF440701B
:1062600000F024F81D208DF80C0000208DF80D00A2
:106270008DF80E0001208DF80F0003A800F01BF828
:106280001FBD10B50121074802F00DF840B10121F2
:10629000044802F019F804480068401C02490860EC
:1062A00010BD000000040040780000603149014347
:1062B000314A1160704770B5002100230F22C47865
:1062C00004B32D4C246804F4E064C4F5E064210AAE
:1062D000C1F10403CA40447804FA03F184781440FD
:1062E00021430901254C0678A155047804F01F05C7
:1062F0000124AC4005786D11AD0005F1E025C5F82D
:10630000004109E0047804F01F050124AC401C4D55
:106310000678761145F8264070BD1A4A0A400243B5
:10632000154B1B1F1A60704739B1134A121D1268B2
:106330000243114B1B1D1A6006E00F4A121D126822
:1063400082430D4B1B1D1A607047042808D14FF083
:10635000E021096941F004014FF0E022116107E0FA
:106360004FF0E021096921F004014FF0E0221161B2
:10637000704700000000FA050CED00E000E400E0CA
:1063800080E100E080FFFF1F10B50446CC48844246
:1063900008D10121042000F02DFB0021042000F091
:1063A00029FB46E0C748844208D10121082000F0BB
:1063B00021FB0021082000F01DFB3AE0C248844286
:1063C00008D10121102000F015FB0021102000F061
:1063D00011FB2EE0BD48844208D10121202000F0AD
:1063E00009FB0021202000F005FB22E0B848844290
:1063F00008D10121402000F0FDFA0021402000F0EA
:10640000F9FA16E0B348844208D10121802000F057
:10641000F1FA0021802000F0EDFA0AE0AE48844253
:1064200007D10121801500F0E5FA0021A01500F048
:10643000E1FA10BD10B50121084600F0DBFA002199
:10644000012000F0D7FA10BD2DE9F04102460025E9
:106450000026002000230024002791F803C00CF040
:106460000F0591F803C00CF0100CBCF1000F03D025
:1064700091F802C04CEA050591F800C0BCF1000F8C
:1064800031D0146800202BE04FF0010C0CFA00F31F
:10649000B1F800C00CEA03069E4220D183004FF001
:1064A0000F0C0CFA03F7BC4305FA03FC4CEA040496
:1064B00091F803C0BCF1280F06D14FF0010C0CFA83
:1064C00000FCC2F814C00AE091F803C0BCF1480F08
:1064D00005D14FF0010C0CFA00FCC2F810C0401CB2
:1064E0000828D1D31460B1F800C0BCF1FF0F34DD2F
:1064F000546800202EE000F1080C4FF0010808FA63
:106500000CF3B1F800C00CEA03069E4221D18300CF
:106510004FF00F0C0CFA03F7BC4305FA03FC4CEAEE
:10652000040491F803C0BCF1280F05D100F1080C58
:1065300008FA0CF8C2F8148091F803C0BCF1480FB7
:1065400007D100F1080C4FF0010808FA0CF8C2F866
:106550001080401C0828CED35460BDE8F0814FF66F
:10656000FF710180022181700421C17070470246D1
:10657000002093680B400BB1012000E00020704721
:106580000146886880B2704702460020D3680B40FD
:106590000BB1012000E0002070470146C86880B2BE
:1065A000704701617047416170470AB1016100E0C5
:1065B00041617047C16070474FF480320A43826185
:1065C0008161826182698269704702460020434B83
:1065D00018684FF68073184040EA021008433F4B9A
:1065E000186070473E49C8617047F0B50A460023FD
:1065F00000240021002500F00046B6F1004F02D132
:10660000364EF16901E0354E7168C0F3034583B23F
:1066100000F44016B6F5401F08D121F070612F4EEE
:10662000766826F070662D4F7E6012E000F48016CA
:10663000B6F5801F06D1032606FA05F4A14341F002
:10664000706106E0460D360103FA06F6B14341F0EB
:10665000706122B1460D360103FA06F6314300F0AF
:106660000046B6F1004F02D11C4EF16101E01B4E15
:106670007160F0BD30B500228B071C0F0F2303FAA9
:1066800004F2164B08338C1053F824309343134C08
:1066900008348D1044F8253023468C1053F82430EC
:1066A0008C07240F00FA04F423430C4C08348D109B
:1066B00044F8253030BD0A49DC31086070470000DD
:1066C00000080140000C014000100140001401408E
:1066D00000180140001C0140002001400000014062
:1066E00000002042DF48006840F00100DD490860FA
:1066F00008464068DC490840DA49486008460068B6
:10670000DA490840D74908600846006820F480202C
:1067100008600846406820F4FE0048604FF41F00FF
:1067200088607047CF49096821F48031CD4A1160F3
:106730001146096821F480211160B0F5803F03D033
:10674000B0F5802F0ED106E0C649096841F48031CA
:10675000C44A116007E0C349096841F4A021C14A55
:10676000116000E000BF00BF704710B50146002275
:10677000002300204A11012A02D1BA4C236806E006
:10678000022A02D1B74C236A01E0B64C636A01F0D9
:106790001F02012494401C400CB1012000E00020A5
:1067A00010BD38B5002000900024002500BF312026
:1067B000FFF7DBFF05460098401C00900098B0F5FD
:1067C000A06F01D0002DF2D03120FFF7CEFF08B12D
:1067D000012400E00024204638BD01460020A14AE3
:1067E000106820F0F80040EAC10010607047A0492E
:1067F00008607047024600209A4B586820F47C10CD
:1068000042EA01031843974B58607047984908665D
:10681000704701460020934A506820F00300084367
:10682000506070478F48406800F00C007047014688
:1068300000208C4A506820F0F000084350607047F8
:1068400001460020874A506820F4E0600843506009
:10685000704701460020834A506820F4605040EAA7
:10686000C1005060704729B17E4A527A02437D4B85
:106870005A7204E07B4A527A82437A4B5A727047CA
:106880007B49D8310860704701460020754A50683E
:1068900020F440400843506070470021714A203284
:1068A0001170704A82F82010012802D004280AD101
:1068B00004E001216B4A2032117005E00521694A8C
:1068C0002032117000E000BF00BF704769490860C6
:1068D00070476449096A0143624A11627047654919
:1068E00044390860704730B500210022002400239D
:1068F0005C4D6D6805F00C0121B1042905D0082913
:1069000023D105E05C4D056022E05B4D05601FE092
:10691000544D6D6805F47012524D6D6805F4803465
:10692000022505EB92421CB9544D554305600BE01E
:106930004C4D6D6805F400351DB1504D5543056053
:1069400002E04D4D5543056002E04B4D056000BF30
:1069500000BF444D6D6805F0F0010909484D6B5CBE
:106960000568DD4045603F4D6D6805F4E061090A4A
:10697000434D6B5C4568DD4085603A4D6D6805F4BC
:106980006051C90A3E4D6B5C4568DD40C560354DC0
:106990006D6805F44041890B3A4D6B5CC568B5FBE9
:1069A000F3F5056130BD29B12E4A526902432D4BE2
:1069B0005A6104E02B4A526982432A4B5A6170475C
:1069C00029B1284A92690243264B9A6104E0254A7C
:1069D00092698243234B9A61704729B1214AD26957
:1069E0000243204BDA6104E01E4AD26982431D4B08
:1069F000DA61704729B11B4AD2680243194BDA6049
:106A000004E0184AD2688243164BDA60704729B115
:106A1000144A12690243134B1A6104E0114A1269C5
:106A20008243104B1A617047124940390860704721
:106A30000F49C86470470B49C87170470948406ADC
:106A400040F0807007494862704701460020054ABF
:106A500092680A400AB1012000E000207047014915
:106A600088727047001002400000FFF8FFFFF6FE3A
:106A7000000042428004424200127A0000093D00B8
:106A80007C0000608C00006010B50446FB48844226
:106A900009D101218803FFF7ADFF00214FF48040A9
:106AA000FFF7A8FF32E0F648844209D101214804EB
:106AB000FFF7ADFF00214FF40030FFF7A8FF25E0FE
:106AC000F048844209D101218804FFF7A0FF00218A
:106AD0004FF48020FFF79BFF18E0EB48844209D178
:106AE0000121C804FFF793FF00214FF40020FFF7B6
:106AF0008EFF0BE0E548844208D101210805FFF72D
:106B000086FF00214FF48010FFF781FF10BD2DE9B3
:106B1000F04786B005460E460024A24600BFA146B7
:106B20000027B08900B100BF2F462C8A4CF6FF70B9
:106B30000440F08804432C82AC894EF6F3100440E4
:106B4000B08831890843718908430443AC81AC8A19
:106B50004FF6FF400440B0890443AC8201A8FFF720
:106B6000C2FEC648874202D1DDF810A001E0DDF880
:106B70000CA0A88900F4004040B10AEBCA0000EB69
:106B80000A1031684900B0FBF1F807E00AEBCA00CF
:106B900000EB0A1031688900B0FBF1F86420B8FB03
:106BA000F0F004012009642101FB1089A88900F498
:106BB000004040B1322000EBC900B0FBF1F000F022
:106BC0000700044308E0322000EB09106421B0FB09
:106BD000F1F000F00F0004432C8106B0BDE8F0870F
:106BE0004FF41651016000218180C18001810C2188
:106BF000418100218181704710B502460020108A32
:106C00004FF2FF0318400B884C8823438C882343A2
:106C1000CC8823431843108210BD0021018041809D
:106C20008180C180704721B1828942F40052828103
:106C300004E082894DF6FF731A4082817047F0B5F7
:106C40000346002400260025002040F66A17B942BA
:106C500000D100BF1846C1F3421401F01F060127FE
:106C600007FA06F5012C01D10C3004E0022C01D109
:106C7000103000E014301AB107682F43076002E0BB
:106C80000768AF430760F0BD1AB1838A0B43838264
:106C900002E0838A8B4383827047028A4FF6F07347
:106CA0001A400282028A0A430282704782894FF2A6
:106CB000FF731A40828182890A438281704721B121
:106CC000828942F00202828104E082894FF6FD73DC
:106CD0001A4082817047028A4FF6DF731A4002829F
:106CE000028A0A430282704721B1028A42F480423A
:106CF000028204E0028A4BF6FF731A400282704758
:106D0000C1F308028280704701468888C0F30800FA
:106D10007047818941F0010181817047028BD2B2B5
:106D20000283028B42EA012202837047028B02F443
:106D30007F420283028B0A430283704721B1828A19
:106D400042F02002828204E0828A4FF6DF731A400A
:106D50008282704721B1828A42F01002828204E06E
:106D6000828A4FF6EF731A408282704721B1828A7D
:106D700042F00802828204E0828A4FF6F7731A40DA
:106D80008282704721B1828942F40042828103E00D
:106D90008289C2F30E028281704721B1828A42F455
:106DA0000062828204E0828A4FF2FF731A4082827C
:106DB0007047828A4FF6FB731A408282828A0A43A6
:106DC0008282704721B1828A42F00202828204E00C
:106DD000828A4FF6FD731A40828270470246002075
:106DE000B1F5007F00D100BF13880B400BB101202B
:106DF00000E00020704701F40072B2F5007F00D17E
:106E000000BFCA430280704770B5024600240023C9
:106E10000025002040F66A16B14200D100BFC1F340
:106E2000421501F01F03012606FA03F3012D02D1DA
:106E30009689334006E0022D02D1168A334001E0E4
:106E4000968A33400C12012606FA04F41688344060
:106E500013B10CB1012000E0002070BD10B500227C
:106E6000002340F66A14A14200D100BF0A12012497
:106E70009440A3B2DC43048010BD00000038014000
:106E80000044004000480040004C004000500040DA
:106E900010B50446BE48844208D101218014FFF792
:106EA000A9FD0021A014FFF7A5FD16E0B948844212
:106EB00008D101210014FFF7AAFD00212014FFF7DB
:106EC000A6FD0AE0B448844207D10121C013FFF7B0
:106ED0009EFD0021E013FFF79AFD10BD10B50022C2
:106EE000028802F441520B884C8823438C88234348
:106EF000CC8823430C8923434C8923438C89234327
:106F0000CC8923431A430280838B4FF2FF742340C2
:106F100083830B8A038210BD2DE9F04F85B00546AF
:106F20000C464FF0000902274FF000084FF0010B0C
:106F30000026B246A88B4FF240010840A8830220E9
:106F40002884B5F81C90A068022801D100BF38E061
:106F5000A08810B94FF0010B01E04FF0020B8D48F3
:106F6000854200D100E000BF6846FFF7BCFCDDF8B9
:106F700000A0E088B0F5007F0AD14FEA1A2000EBAC
:106F800080004000A168B0FBF1F0401D86B20BE02C
:106F90004FEA4B10BAFBF0F000EB80004000A16814
:106FA000B0FBF1F0401D86B20A20B6FBF0F606F009
:106FB0000108A6EB0800C0F34F074FF6FF7000EA88
:106FC0000828022F01DBFF2F02DD02274FF0000807
:106FD000E08840EA080038432884A088A189084353
:106FE000618808432188084340F4006040EA0909A9
:106FF000A5F81C9005B0BDE8F08F0021018041800C
:107000008180C180018141818181C181072101820B
:1070100070470021018041808180C1800221816010
:1070200000218181704721B1028842F04002028034
:1070300004E002884FF6BF731A400280704721B106
:10704000828B42F48062828304E0828B4FF6FF33AE
:107050001A408283704730B5002400230C110125AB
:10706000A540ABB21AB185881D43858002E08588B2
:107070009D43858030BD1AB183880B43838002E035
:1070800083888B438380704781817047014688895C
:1070900070474FF6FF62914204D0028842F480723A
:1070A000028004E002884FF6FF631A4002807047B6
:1070B00021B1828842F00402828004E082884FF687
:1070C000FB731A408280704702884FF2FF731A40A8
:1070D000028002880A4302807047018841F480518F
:1070E0000180704721B1028842F40052028004E01E
:1070F00002884DF6FF731A40028070470246002056
:10710000012901D0108B00E0908A70470146088A5F
:107110007047B1F5804F04D1028842F4804202806A
:1071200004E002884BF6FF731A4002807047024663
:10713000002013890B400BB1012000E000207047B4
:10714000CA4302817047F0B50246002000240023A4
:10715000002501F00F070126BE40B4B20B11012635
:107160009E40B3B2968806EA03051689264016B1FA
:107170000DB1012000E00020F0BD10B5002201F0AB
:107180000F040123A3409AB2D343038110BD000032
:107190000030014000380040003C00400E490860CB
:1071A00070470D49486070470B49886070474AF640
:1071B000AA200949086070474CF6CC40064908608F
:1071C000704701460020044AD2680A400AB10120F3
:1071D00000E00020704700000030004029B1504A14
:1071E000128802434E4B1A8004E04D4A12888243B3
:1071F0004B4B1A8070474A48001D008840F0100031
:107200004749091D088070474548001D00884FF612
:10721000EF7108404249091D08807047002140482D
:107220001C300188001F008841EA0040704700B50B
:107230000246FFF7E0FF100C394918310880091D9C
:107240000A80FFF7E1FF00BD00B50246FFF7D3FF5C
:10725000C2F30340324908310880091D0A80FFF754
:10726000D3FF00BD00B50246FFF7C5FF100C2C4947
:1072700020310880091D0A80FFF7C6FF00BD0020ED
:107280002749103109880907080B25491431098855
:107290000843704700BF2248001D008800F020000E
:1072A0000028F8D070471E48001D00884FF6F7717F
:1072B00008401B49091D088000BF1948001D0088AF
:1072C00000F008000028F8D0704701460020144A5A
:1072D000121D12880A400AB1012000E00020704708
:1072E0000F49091D098881430D4A121D11807047FD
:1072F000014600200A4A121D12880A40D0B2084AEC
:1073000012880A4012B108B1012000E00020704745
:107310000349091D09888143014A121D11807047E4
:107320000028004010B50120FFF77EFB0020FFF78A
:107330007BFB10BD2A49086070472949091F086076
:107340007047274984310860704701460020254A6C
:1073500010884FF67F4210400843224A1080704741
:10736000014600201F4A10884FF6807210400843E3
:107370001C4A1080704708B500220092194A2C3A26
:107380000092009A02440092009A116008BD08B56C
:1073900001460020009013482C38009000980844C3
:1073A00000900098008808BD0D489C300068C0B26D
:1073B00070470C480830008840F001000949083146
:1073C000088070470648A0300068C0B27047054882
:1073D0000830008840F002000249083108807047F8
:1073E00004860D422C6C004010B501210807FFF700
:1073F0000EFB00214FF08050FFF709FB10BD2A491A
:107400000862704728490861704701460020274AF2
:10741000106820F0E0000843106070472249A03156
:107420000860704710B502460020204B186820F015
:107430000300104318601E4B1B6843F004031C4CF0
:107440002360012901D130BF00E020BF184B1B6829
:1074500023F00403164C236010BD1448006840F06C
:107460000400124908600846006840F00200086005
:107470000F48006840F004000D49086000BF00BFDD
:1074800030BF704701460020084A52680A400AB1DE
:10749000012000E0002070470449096841EA8001AA
:1074A000024A11607047000000000E420070004068
:1074B00010ED00E010B50446FE48844208D10121D9
:1074C000C014FFF797FA0021E014FFF793FAC4E025
:1074D000B4F1804F08D101210846FFF798FA002146
:1074E0000120FFF794FAB8E0F348844208D1012163
:1074F0000220FFF78CFA00210220FFF788FAACE0A7
:10750000EE48844208D101210420FFF780FA0021CF
:107510000420FFF77CFAA0E0E948844208D1012169
:107520000820FFF774FA00210820FFF770FA94E0B2
:10753000E448844208D101211020FFF768FA0021B5
:107540001020FFF764FA88E0DF48844208D1012167
:107550002020FFF75CFA00212020FFF758FA7CE09A
:10756000DA48844208D101214014FFF743FA002190
:107570006014FFF73FFA70E0D548844209D1012139
:10758000C804FFF737FA00214FF40020FFF732FA62
:1075900063E0D048844209D101210805FFF72AFAA7
:1075A00000214FF48010FFF725FA56E0CA488442C4
:1075B00009D101214805FFF71DFA00214FF4001001
:1075C000FFF718FA49E0C548844208D1012140205C
:1075D000FFF71DFA00214020FFF719FA3DE0C048EF
:1075E000844208D101218020FFF711FA0021802078
:1075F000FFF70DFA31E0BB48844208D10121801524
:10760000FFF705FA0021A015FFF701FA25E0B648BB
:10761000844209D101210804FFF7ECF900214FF45D
:107620008030FFF7E7F918E0B048844209D1012122
:107630004804FFF7DFF900214FF40030FFF7DAF9D3
:107640000BE0AB48844208D101218804FFF7D2F94E
:1076500000214FF48020FFF7CDF910BD00220288F1
:10766000944B98420ED0994B98420BD0B0F1804F7A
:1076700008D0914B984205D0904B984202D0904B45
:10768000984204D14FF68F731A404B881A438D4BA2
:10769000984207D08C4B984204D04FF6FF431A40D3
:1076A000CB881A4302808B8883850B880385814BA6
:1076B00098420BD0854B984208D08B4B984205D00E
:1076C0008A4B984202D08A4B984201D10B7A0386AA
:1076D00001238382704770B5002400220023058CAB
:1076E0004FF6FE7635400584028C8388048B4FF676
:1076F0008F752C40B51E2C400D882C43751E2A40DA
:107700000D892A434D882A436A4DA8420BD06F4DFC
:10771000A84208D0744DA84205D0744DA84202D0AA
:10772000734DA84213D14FF6F7752A404D892A436D
:107730004FF6FB752A408D882A434FF6FF652B4094
:107740004FF6FF552B408D892B43CD892B438380EA
:107750000483CD888586028470BD70B50024002224
:107760000023058C4FF6EF7635400584028C838824
:10777000048B48F6FF752C404FF6FF452C400D88D2
:107780004FF6FF7606EA05252C434FF6DF752A40B3
:107790000D8906EA05152A434D8806EA05152A4390
:1077A000444DA84202D0494DA8421DD14FF67F75E5
:1077B0002A404D894FF6FF7606EA05152A434FF613
:1077C000BF752A408D8806EA05152A434FF6FF3516
:1077D0002B404FF2FF752B408D8906EA85052B4320
:1077E000CD8906EA85052B4383800483CD880587F0
:1077F000028470BD70B5002400220023058C4FF672
:10780000FF6635400584028C8388848B4FF68F7524
:107810002C404FF6FC752C400D882C434FF6FF553D
:107820002A400D894FF6FF7606EA05252A434D8842
:1078300006EA05252A431F4DA84202D0234DA8423F
:107840001DD14FF2FF752A404D894FF6FF7606EAAB
:1078500005252A434FF6FF352A408D8806EA05257F
:107860002A434EF6FF752B404DF6FF752B408D8950
:1078700006EA05152B43CD8906EA05152B438380BF
:107880008483CD888587028470BD70B50022002373
:107890000024058C4EF6FF7635400584038C8488E1
:1078A000828B48F6FF752A404FF6FF452A400D8827
:1078B00020E00000002C01400004004000080040CF
:1078C000000C004000100040001400400034014053
:1078D000004C01400050014000540140001800409D
:1078E000001C0040002000400040014000440140D6
:1078F000004801404FF6FF7606EA05252A434DF67B
:10790000FF752B400D8906EA05352B434D8806EAA5
:1079100005352B43FA4DA84202D0FA4DA84208D1B2
:107920004BF6FF752C408D894FF6FF7606EA8515DC
:107930002C4384808283CD88A0F84050038470BD9E
:10794000828B4FF2FF331A408283828B4FF6FF7394
:1079500003EA01231A4382837047F0B50C461546AB
:10796000002200210026078C4EF6FF7C07EA0C0758
:107970000784828B018C4FF6FF7707EA043640F6C6
:10798000FF473A404FF6FF7707EA05273A434FF69D
:10799000FF7707EA03373A43D94FB8420ED0D94FA1
:1079A000B8420BD0B0F1804F08D0D74FB84205D0C5
:1079B000D64FB84202D0D64FB84206D14DF6FF7727
:1079C000394046F48057394305E047F6FF573940C0
:1079D00044F48057394382830184F0BD828B4FF693
:1079E000F3731A408283828B0A4382837047F0B517
:1079F0000C461546002200210026078C4FF6FF6C2E
:107A000007EA0C070784828B018C4FF6FF7707EAA1
:107A100004264FF60C773A404FF6FF7707EA031734
:107A20002F433A43B64FB8420ED0B64FB8420BD0B0
:107A3000B0F1804F08D0B44FB84205D0B34FB84230
:107A400002D0B34FB84206D14FF6FF57394046F443
:107A50008077394305E04FF2FF57394044F480778F
:107A6000394382830184F0BD028B4FF2FF331A4009
:107A70000283028B4FF6FF7303EA01231A4302834A
:107A80007047F0B50C461546002200210026078CF1
:107A90004FF6EF7C07EA0C070784028B018C4FF648
:107AA000FF7707EA041640F6FF473A404FF6FF77A4
:107AB00007EA03373A434FF6FF7707EA05273A43C9
:107AC0008F4FB8420ED08F4FB8420BD0B0F1804FDD
:107AD00008D08D4FB84205D08C4FB84202D08C4FA1
:107AE000B84206D14FF6DF77394046F010073943E8
:107AF00005E04FF65F77394044F0100739430283C1
:107B00000184F0BD028B4FF6F3731A400283028B9F
:107B10000A4302837047F0B50C4615460022002147
:107B2000068C4FF6FE773E400684028B018C4FF6A2
:107B30000C7632407E1C06EA03162E433243704E0A
:107B4000B0420ED06F4EB0420BD0B0F1804F08D093
:107B50006D4EB04205D06D4EB04202D06C4EB04278
:107B600006D14FF6FD76314044F00106314305E081
:107B70004FF6F576314044F001063143028301842B
:107B8000F0BD70B505460C465D4885420ED05D4897
:107B900085420BD0B5F1804F08D05B48854205D0B7
:107BA0005A48854202D05A48854200D100E000BFC1
:107BB000208850B92389A28861882846FFF7ABFF47
:107BC000E1882846FFF79EFF25E0208804280AD197
:107BD0002389A28861882846FFF753FFE188284659
:107BE000FFF742FF17E0208808280AD12389A288DE
:107BF00061882846FFF7FBFEE1882846FFF7EEFE86
:107C000009E02389A28861882846FFF7A6FEE1885B
:107C10002846FFF795FE70BD2DE9F04105460C465C
:107C200000260127608808B9022600E00026A08807
:107C3000012801D1022700E001272088A0B923896B
:107C4000A28861882846FFF766FFE1882846FFF78B
:107C500059FF23893A4631462846FFF712FFE1884B
:107C60002846FFF701FF13E02389A2886188284690
:107C7000FFF707FFE1882846FFF7F6FE23893A461B
:107C800031462846FFF747FFE1882846FFF73AFFCD
:107C9000BDE8F0810A884B881A438B881A43CB8849
:107CA0001A430B891A434B891A438B891A43A0F84C
:107CB000442070474FF6FF71818000210180C18010
:107CC0004180017270470021018041808180C18024
:107CD000018141818181C181704700210180418002
:107CE000012181800021C180018170470021018034
:107CF00041808180C1800181418181817047000084
:107D0000002C014000340140000400400008004005
:107D1000000C004021B1028842F00102028004E020
:107D200002884FF6FE731A400280704731B1B0F8F6
:107D3000442042F40042A0F8442005E0B0F844207A
:107D4000C2F30E02A0F8442070471AB183890B4396
:107D5000838102E083898B438381704781827047EE
:107D600041EA0203A0F8483070471AB183890B43F7
:107D7000838102E083898B438381704701894FF6B9
:107D8000F8721140018170470A46002101894FF6BF
:107D90008F73194011430181704730B504460D4679
:107DA00029462046FFF7F0FF208940F00700208198
:107DB00030BD2DE9F04104460D4616461F46602DA4
:107DC00006D13B46012231462046FFF75AFE05E028
:107DD0003B46012231462046FFF79DFE29462046BC
:107DE000FFF7D2FF208940F007002081BDE8F08135
:107DF00030B50C4600210189C9B24FF6FF7505EA7E
:107E00000325154325432943018130BD2DE9F04168
:107E100005460E4617469846002443463A463146E4
:107E20002846FFF7E5FF2C894FF6F870044044F030
:107E300007044FF68F70044044F070042C81BDE8B5
:107E4000F081F0B504460D4616461F463B463246C5
:107E500029462046FFF7CCFF208940F4804020814E
:107E6000F0BD0185828270470A46002101884FF6E5
:107E70008F731940114301807047F0B50C461546C9
:107E80001E460021002200230189028B038C4FF63D
:107E9000F877394021434FF6FC473A4040F201174A
:107EA0003A434FF6DD773B404FF6FF7707EA061778
:107EB0002F433B43018102830384F0BD0A46002126
:107EC000018B4FF68F7319401143018370470A46A7
:107ED0000021018B48F6FF7319404FF6FF7303EA48
:107EE00002231943018370470A460021818B4FF614
:107EF0008F7319401143818370470A460021818B9B
:107F000048F6FF7319404FF6FF7303EA0223194343
:107F10008183704721B1028842F08002028004E030
:107F200002884FF67F731A400280704721B1828821
:107F300042F00402828004E082884FF6FB731A400C
:107F40008280704721B1828842F00802828004E07A
:107F500082884FF6F7731A408280704721B1828879
:107F600042F00102828004E082884FF6FE731A40DC
:107F7000828070470A460021018B4FF6F773194043
:107F80001143018370470A460021018B4FF2FF73B2
:107F900019404FF6FF7303EA022319430183704728
:107FA0000A460021818B4FF6F773194011438183F4
:107FB00070470A460021818B4FF2FF7319404FF63C
:107FC000FF7303EA02231943818370470A460021A5
:107FD000018B4FF6FB7319401143018370470A462A
:107FE0000021018B4FF6FF3319404FF6FF7303EA70
:107FF00002231943018370470A460021818B4FF603
:10800000FB7319401143818370470A460021818B1D
:108010004FF6FF3319404FF6FF7303EA022319436B
:10802000818370470A460021018B4FF67F73194008
:108030001143018370470A460021018BC1F30E01F1
:108040004FF6FF7303EA02231943018370470A4680
:108050000021818B4FF67F73194011438183704754
:108060000A460021818BC1F30E014FF6FF7303EA2C
:1080700002231943818370470A460021018C4FF681
:10808000FD7319401143018470470A460021018C99
:108090004FF6F77319401143018470470A460021D7
:1080A000018C4FF6DF7319404FF6FF7303EA02139A
:1080B0001943018470470A460021018C4FF67F73F3
:1080C00019404FF6FF7303EA021319430184704706
:1080D0000A460021018C4FF6FF5319404FF6FF73FB
:1080E00003EA02231943018470470A460021018CE8
:1080F0004FF2FF7319404FF6FF7303EA022319434F
:10810000018470470A460021018C4DF6FF73194027
:108110004FF6FF7303EA023319430184704730B509
:10812000002301248C40A3B2048C9C430484048C5F
:1081300002FA01F5ADB22C43048430BD30B5002302
:1081400004248C40A3B2048C9C430484048C02FA63
:1081500001F5ADB22C43048430BD70B50346002058
:1081600000241846183001258D40ACB21D8CA54363
:108170001D8409B1082909D100EB6100056825F0CB
:10818000700505600568154305600EE00D1FC5F319
:108190004E052844056825F4E045056005684FF65E
:1081A000FF7606EA02263543056070BD21B10288DC
:1081B00042F00202028004E002884FF6FD731A408A
:1081C0000280704721B1028842F00402028004E07C
:1081D00002884FF6FB731A400280704721B18288F3
:1081E00042F08002828004E082884FF67F731A405A
:1081F0008280704702884FF6F7731A400280028827
:108200000A430280704782884FF68F731A4082803B
:1082100082880A438280704702894FF6F8731A40B9
:10822000028102890A430281704702894FF67F73F7
:108230001A40028102890A43028170478184704793
:1082400081857047818670470187704781877047B5
:10825000A0F84010704702884FF6FF431A40028092
:1082600002880A43028070470146888E70470146A3
:10827000088F70470146888F70470146B1F840006B
:1082800070470146888C70470146088D704702464A
:108290000020138A0B400BB1012000E00020704742
:1082A000CA430282704730B50246002000230024F2
:1082B000158A05EA0103958905EA010413B10CB199
:1082C000012000E0002030BDCA4302827047000058
:1082D000012010498860704701460E48016000681F
:1082E000704710B502460B46002100BF04E052F86B
:1082F0002100084C2060491C9942F8D305480068C9
:1083000010BD044800687047024908717047014871
:10831000007970470030024010B50446002C37D079
:1083200049494AA000F068FE4F4950A000F064FEA1
:10833000554956A000F060FE5B495CA000F05CFE71
:10834000614962A000F058FE674968A000F054FE41
:108350006D496EA000F050FE734974A000F04CFE11
:1083600079497AA000F048FE7F4980A000F044FEE1
:10837000854986A000F040FE8B498CA000F03CFEB1
:10838000914992A000F038FE974998A000F034FE81
:1083900010BD30B59BB004469BA207CA18AB07C3FB
:1083A0009CA207CA15AB07C3142110A800F0BBFAA2
:1083B00028229BA106A800F09DFA00250020059028
:1083C000049003900290019004A805AB10AA9EA10E
:1083D000009018A800F0C4FA03A802AB01AA9DA15E
:1083E000009015A800F0BCFA10A906A800F0A6FAA3
:1083F00006A9401A032190FBF1F0451C0598E07096
:10840000A5706421049890FBF1F201FB1200C0B248
:10841000208001982071029860710398A0711BB0B0
:1084200030BD1FB5044601A802AB03AA8CA1009081
:108430002D4800F095FA01982070DDE9020140EA2C
:10844000011060701FBD0000109200080D0A636FDC
:108450006D70696C6520646174653A20202020206D
:1084600020202020202573001C9200080D0A636F35
:108470006D70696C652074696D653A20202020203C
:108480002020202020257300259200080D0A7072FC
:108490006F64756374206D63753A2020202020205E
:1084A0002020202020257300339200080D0A7072CE
:1084B0006F64756374206D637520636C6F636B3AD2
:1084C00020202020202573003A9200080D0A7072A7
:1084D0006F647563742073797320636C6F636B3A98
:1084E0002020202020257300429200080D0A70727F
:1084F0006F64756374207665723A202020202020F6
:108500002020202020257300509200080D0A707250
:108510006F6475637420646576656C6F7065723A1C
:1085200020202020202573005C9200080D0A707224
:108530006F64756374206F733A2020202020202000
:108540002020202020257300609200080D0A707200
:108550006F6A656374206E756D3A2020202020209C
:108560002020202020257300699200080D0A7072D7
:108570006F6475637420636F64653A202020202047
:1085800020202020202573007A9200080D0A7072A6
:108590006F6475637420746F6F6C20636861696EBB
:1085A0003A20202020257300390F4D000D0A7072EB
:1085B0006F647563742061726D636320636F6D70A7
:1085C000696C65723A256400A09200080D0A707209
:1085D0006F64756374206D6F64656C3A2020202091
:1085E0002020202020257300A29200080D0A70721E
:1085F0006F6475637420736F6C7574696F6E206E31
:10860000756D3A202025730041756720203820328F
:108610003031350031313A34363A31300000000023
:108620004A616E4665624D61724170724D61794A70
:10863000756E4A756C4175675365704F63744E6F04
:1086400076446563000000002573202564202564BE
:108650000000000025643A25643A2564000000000B
:1086600025642E25642E2564000000000CB5002032
:10867000019000908148006840F480307F49086094
:1086800000BF7E48006800F4003000900198401C54
:108690000190009818B90198B0F5A06FF1D1774812
:1086A000006800F4003010B10120009001E00020CB
:1086B00000900098012843D17148006840F01000F4
:1086C0006F4908600846006820F00300086008460B
:1086D000006840F0020008606848406867494860E8
:1086E0000846406848600846406840F4806048603A
:1086F0000846406820F47C1048600846406840F412
:10870000E81048600846006840F08070086000BFCC
:108710005A48006800F000700028F9D057484068B7
:1087200020F00300554948600846406840F00200C8
:10873000486000BF5148406800F00C000828F9D19B
:108740000CBD10B5FFF792FF10BD4FF48A704B4976
:1087500048614FF4F07088614A484B4908604FF017
:10876000BB30091D08604948494908604FF0BB30DB
:10877000091D08604748484908604848091D0860C5
:108780004448474908604FF04430486041F21100C6
:108790004FF0204108604FF440704860704710B5BA
:1087A0003648006840F001003449086008464068D7
:1087B0003C49084031494860084600683A49084049
:1087C0002E4908600846006820F4802008600846AA
:1087D000406820F4FE0048604FF41F008860FFF7F7
:1087E000B4FFFFF7AEFF31483149086010BD10B546
:1087F000002100200022214B5B6803F00C0121B115
:10880000042906D0082928D107E02A4B2A4C2360E6
:1088100027E0284B284C236023E0184B5B6803F4C7
:108820007010164B5B6803F48032022303EB904018
:1088300022B9224B4343204C23600DE00F4B5B6871
:1088400003F4003323B11D4B43431B4C236003E06F
:10885000184B4343184C236003E0164B164C23601F
:1088600000BF00BF054B5B68C3F30313144CE15C0E
:10887000114B1B68CB40104C236010BD0010024010
:1088800000200240BB44BBB400140140BB4444B4CC
:1088900000180140BBBBBB44001C01404444BBBBAF
:1088A000002001400000FFF8FFFFF6FE0040000836
:1088B00008ED00E000127A009000006000093D0021
:1088C0009400006008488047084880F308880848FA
:1088D0000047FEE7FEE7FEE7FEE7FEE7FEE7FEE70E
:1088E000FEE7FEE7FEE700009F870008280B006018
:1088F0003141000840EA01039B0703D009E008C9A1
:10890000121F08C0042AFAD203E011F8013B00F854
:10891000013B521EF9D27047D2B201E000F8012BA0
:10892000491EFBD270470022F6E710B513460A46EF
:1089300004461946FFF7F0FF204610BD30B5054646
:108940002A460B4612F8010B13F8014B08B1A0425E
:10895000F8D01CB1002802D06D1CF1E7284630BDCC
:108960000FB400B58DB010A909900B9000914FF095
:10897000FF300A9000200C900548069005480790AB
:108980006A4609A80F9900F047F90DB05DF814FB8D
:10899000358C0008538C00082DE9FF5F1D464FF011
:1089A000FF3BD5E9014691465F464FF00008A969B3
:1089B0007F1C01988847296A824688470028F6D19B
:1089C000BAF1FF3F0CD024F4C064002E19DD60061C
:1089D00014D5BAF12B0F09D0BAF12D0F0ED103E047
:1089E000584604B0BDE8F09F44F48064A9697F1C38
:1089F00001988847761E8246002E02DDBAF1300FBC
:108A000003D0B9F1000F26D032E0A969761E44F4F4
:108A100000747F1C019888478246002E05DDBAF15C
:108A2000780F06D0BAF1580F03D0B9F1000F10D06B
:108A30001EE0B9F1000F02D0B9F1100F18D1A969E9
:108A4000761E24F400747F1C01988847824610200B
:108A500002E0082000E00A20814609E008FB09083E
:108A6000A969761E44F400747F1C019888478246E9
:108A7000002E05DD4946504600F0BAF80028EDDA30
:108A8000E96901988847A00502D46FF00100A8E7C2
:108A9000E00725D1600613D5600502D5C8F10000B6
:108AA00000E0404629680A1D2A600968220501D5B0
:108AB000087015E0220701D5088011E008600FE07A
:108AC0002868011D29600068210502D580F8008012
:108AD00006E0210702D5A0F8008001E0C0F8008080
:108AE00038467EE72DE9FF5FD2E901A74FF0000885
:108AF000916999461446DDF838B046460198884792
:108B0000054659EA0B0005D009E0A169761C0198D9
:108B100088470546216A284688470028F5D1681C01
:108B200003D05FEACA7005D015E04FF0FF3004B003
:108B3000BDE8F09F2068011D2160D0F800800AE0A8
:108B40005FEACA7001D108F8015BA169761C7F1E3B
:108B5000019888470546002F1ADD681C18D0B9F126
:108B6000000F0DD0E81705EBD060421120F01F0078
:108B700059F822102A1A012090400142E0D107E062
:108B8000BBF1000FDCD1216A284688470028D7D0E6
:108B9000E16901988847BBF1000F07D1002E05DD80
:108BA0005FEACA7002D1002188F80010A068B842BC
:108BB00003DDBBF1000F03D017B16FF00100B6E782
:108BC0003046B4E730B50B46014600202022012490
:108BD00009E021FA02F59D4205D303FA02F5491B8B
:108BE00004FA02F52844151EA2F10102F1DC30BDA1
:108BF0003A2800D2303820F02002412A01D3A2F1D5
:108C00003700884201D34FF0FF30704702681144AB
:108C10001378016018467047D160044951610449D6
:108C2000116200211161114600F03CB80D8C000862
:108C3000998C0008426842B1016811F8013B23B1E8
:108C4000521EC0E90012184670470121C160881EFB
:108C5000704742685AB1C368016843B983688B4260
:108C600005D0491E521CC0E90012002070474FF089
:108C7000FF307047064C074D06E0E06840F0010306
:108C800094E8070098471034AC42F6D3FBF754FA47
:108C9000F892000818930008C0B24FF4F05100F0A9
:108CA00097B900002DE9F34F8BB04FF0000801F1A8
:108CB0000C000C464FF0010B46460DF1080A0190DE
:108CC000626901210198904705002DD0252D2CD0F7
:108CD000216A8847C0B16269012101989047216AE1
:108CE00088470028F7D1411E62690198904700E04B
:108CF000761CA1690B988847216A88470028F7D11C
:108D0000E1690B988847DBE7A1690B98884707461C
:108D1000A84201D1761CD3E7E1690B9888477F1CF4
:108D200002D1B8F1000F6FD046E1002762693D46DD
:108D30003946019890472A2804D162690121019897
:108D400090470125DFF884926269012101989047DC
:108D5000A0F130010A290AD24F45E5DC07EB870173
:108D600000EB4107303FDFD445F01005ECE7E906A2
:108D700001D46FF000476C280AD04C2814D0682822
:108D800015D06A280DD074281CD07A281AD01DE07E
:108D900062690121019890476C2802D045F00405D2
:108DA00014E045F002050DE045F020050AE0626997
:108DB000012101989047682802D045F0080505E098
:108DC00045F400656269012101989047C4E90157A3
:108DD00065283DD019DC58287AD00CDC452837D0DE
:108DE00004DC252826D0412831D131E046282FD077
:108DF00047282CD12CE05B2877D0612828D0632825
:108E00007CD0642823D15AE0D0E06F2848D008DC19
:108E100066281DD067281BD0692821D06E2816D15E
:108E200027E0702845D0732868D0752847D0782867
:108E30000DD14DE0A1690B988847054625283FF4E0
:108E400069AFE1690B9888476D1C3FF46AAFB3E0E6
:108E500023466A466FF001000B99AFF300809EE055
:108E600045F040006060A80723464FF0000236D46A
:108E70003EE0E8077FF447AF2068011D21600068ED
:108E8000290501D506701BE7290701D5068017E7DC
:108E9000A90703D5F117C0E9006111E706600FE7E4
:108EA00045F040006060A80723464FF0080216D442
:108EB0001EE040F60E0125EA0100606016E045F074
:108EC00040006060A80723464FF00A0207D40FE075
:108ED00045F040006060A80708D5234610226FF0D7
:108EE00001000B99AFF3008059E007E02346102200
:108EF0006FF001000B99FFF74FFD50E04FF00009B4
:108F00004F464B46632802D05B2806D040E0E80677
:108F100001D40120A06001273AE062690121019893
:108F200090475E2805D14FF00109626949460198D2
:108F30009047216939B900210A46534643F8212058
:108F4000491C0829FADBB0B3216969B9C11700EBE4
:108F5000D16253110AEB830122F01F02821A012011
:108F60000B68904003430B606269012101989047B0
:108F70005D28E8D1B9F1000F09D00020514651F821
:108F80002020D24341F82020401C0828F7DB02AB08
:108F9000224600976FF001000B99FFF7A3FD002810
:108FA0000CDA401C08D1BBF1000F05D04FF0FF30A8
:108FB0000DB0BDE8F08FFFE74046F9E7E90701D1C2
:108FC00008F1010806444FF0000B79E6CCCCCC0C3C
:108FD0007F2801D9002208E0064A02EB5002C007B0
:108FE000127800D1120902F00F02012090400840CF
:108FF00070470000A49200080FB4054B10B503A9F8
:10900000044A029800F018F810BC5DF814FB000048
:10901000B14E0008A400006002E008C8121F08C199
:10902000002AFAD170477047002001E001C1121FE9
:10903000002AFBD1704700002DE9FF4F8BB09A4604
:109040000F460546002606E025280BD052460D990E
:1090500090476D1C761C28780028F5D10FB030465B
:10906000BDE8F08F0024A0460122604900E00443DF
:1090700015F8013F203B02FA03F00842F7D12878A7
:109080002E2817D115F8010F44F004042A280ED019
:109090006FF02F022878A0F1300109290AD808EBD7
:1090A000880102EB410100EB01086D1CF2E757F863
:1090B000048B6D1C287869283ED006DC0028CDD0B2
:1090C00063280BD0642804D136E0732810D07528AB
:1090D0004BD052460D999047761C85E017F8040B4B
:1090E0008DF8000000208DF80100E946012003E022
:1090F00057F8049B4FF0FF3061074FF0000401D494
:109100000AE0641C44450DDA8442FADB19F80410C5
:109110000029F6D106E0641C8442FCDB19F8041037
:109120000029F8D1264404E019F8010B52460D99A4
:109130009047641EF8D257E001CF4FF00A0B002889
:1091400002DA40422D2102E0210504D52B218DF8C1
:109150002410012103E0E10705D02021F7E70DF1FC
:10916000200908910CE00021F9E701CF4FF00A0B2C
:10917000F9E75946FFF726FD01F1300209F8012D04
:109180000028F6D1ADEB090000F1200B600701D4F7
:109190004FF00108D84502DDA8EB0B0000E00020ED
:1091A0008046002406E009A85246005D0D999047CC
:1091B000641C761C08988442F5DB04E0302052469B
:1091C0000D999047761CB8F10001A8F10108F5DC73
:1091D00005E019F8010B52460D999047761CBBF13A
:1091E0000001ABF1010BF4DC6D1C34E70928010030
:1091F00008000060000000000003030601040602EE
:10920000050003051F1C1F1E1F1E1F1F1E1F1E1FE4
:1092100041756720203820323031350031313A3401
:10922000363A31300053544D3332463130315A459D
:10923000543600382E304D487A0037322E304D48A3
:109240007A00312E30302E30302E30313436390025
:10925000536F6E6742616E6759616E0052545800D9
:10926000424732303134303500545831360054588A
:109270004A5831332D42474A41004D444B2D41520B
:109280004D205374616E6461726420566572736917
:109290006F6E3A352E31342E302E3000390F4D009E
:1092A0002D004100DDDDDDDDDCBBBBDDDDDDDDDD39
:1092B000DDDDDDDD9888888888888888777777770E
:1092C00077888888855555566666666666666666DA
:1092D0006668888883333332222222222222222285
:1092E0002228888D426C696E6B0000004576656EA1
:1092F000742074696D6572001893000800000060A6
:10930000A800000018900008C0930008A8000060A2
:10931000800A000028900008000000000000000003
:1093200000000000E4920008454100080000000031
:10933000000000000000000000000000EC920008A7
:10934000D142000800000000000000000000000002
:10935000000000000000000000000000000000000D
:1093600000000000000000000000000000000000FD
:10937000640000000000000000000000FFFFFFFF8D
:1093800000000000000000000000000000000000DD
:1093900000000000000000000102030401020304B9
:1093A000060708090204060800A24A04000000009B
:1093B0000000000001020304060708090000000085
:04000005080041317D
:00000001FF
